:100000000C94F2000C940F010C940F010C940F014E
:100010000C940F010C940F010C940F010C940F0120
:100020000C940F010C940F010C943A060C94740676
:100030000C940F010C940F010C940F010C940F0100
:100040000C940F010C940F010C940F010C940F01F0
:100050000C940F010C940F010C940F010C943101BE
:100060000C940F010C940F010C940F010C940F01D0
:100070000C940F010C94AA010C940F010C940F0125
:100080000C940F010C940F010C940F010C940F01B0
:100090000C940F010C940F010C940F010C940F01A0
:1000A0000C940F010C940F010C940F01E205DA057A
:1000B000D205CA05C205BA05B205AA05A2059A0568
:1000C00092058A0582057A0572056A0562055A0558
:1000D00052054A0542053A0532052A0522051A0548
:1000E00012050A050205FA04F204EA04E204DA043D
:1000F000D204CA04C204BA04B204AA04A2049A0430
:1001000092048A0482047A0472046A0462045A041F
:1001100052044A0442043A0432042A0422041A040F
:1001200012040A040204FA03F203EA03E2030A0DCA
:100130000000010000C80112000200008501430018
:10014000030000810104010309046D011202030987
:1001500004650106030309045B0108080334003148
:10016000003000000006034D003200000012034A78
:10017000002E0020004600690065006E006500004A
:10018000000403090409024300020100C03209040B
:1001900000000102020100052400100105240101F4
:1001A000010424020605240600010705820310004D
:1001B0004009040100020A00000007050302400094
:1001C0000007058402400000120100020200001036
:1001D000C0167A040001010203010001C11201806E
:1001E0003601813611241FBECFEFDAE0DEBFCDBF6E
:1001F00011E0A0E0B1E0E8E7F6E102C005900D9261
:10020000AA30B107D9F721E0AAE0B1E001C01D9200
:10021000AC31B207E1F70E94C4080C943A0B0C947D
:100220000000BC0180E090E00E94DD0920E030E0A9
:1002300040E754E40E9449099B01AC0160E070E092
:1002400080E89FE30E94E4082DEC3CEC4CE45EE384
:100250000E946B0A2DEC3CEC4CE45FE30E94E50845
:1002600008951F920F920FB60F9211242F933F9370
:100270004F935F936F937F938F939F93AF93BF93AE
:10028000EF93FF9380911201909113010196909347
:10029000130180931201809112019091130109972B
:1002A00068F08091100190911101019690931101D5
:1002B00080931001109213011092120180910A0193
:1002C00090910B01892BA9F020911001309111011F
:1002D00080910001909101018217930750F46E9A6A
:1002E000769A6A9A729A0E94350210920B011092C5
:1002F0000A0180910A0190910B01892BD1F41D997B
:1003000018C06E9A769881E090E090930B018093EC
:100310000A0180910E0190910F010E941101AB0121
:10032000BC0188EE93E00E94C2011092110110926C
:100330001001FF91EF91BF91AF919F918F917F91AC
:100340006F915F914F913F912F910F900FBE0F9042
:100350001F9018951F920F920FB60F9211248F9332
:100360009F93809178009091790090930F018093F2
:100370000E016A9A72989F918F910F900FBE0F9005
:100380001F901895CF93DF9300D000D0CDB7DEB784
:100390009A01AB0190931701809316019093890005
:1003A00080938800BC0180E090E029833A834B83EE
:1003B0005C830E94DD0929813A814B815C810E9426
:1003C0006B0A0E94B10970938B0060938A00E1E888
:1003D000F0E0808180618083808188608083A0E8F4
:1003E000B0E08C9182608C938C9181608C938C9125
:1003F00080628C938C918F7E8C9380818B7F8083A5
:1004000080818260808380818E7F8083269A0F9096
:100410000F900F900F90DF91CF910895CF93DF93BE
:1004200000D000D0CDB7DEB79B01AC0160911601C2
:100430007091170180E090E029833A834B835C83BD
:100440000E94DD0929813A814B815C810E946B0AFF
:100450000E94B10970938B0060938A000F900F90F7
:100460000F900F90DF91CF910895E1E8F0E0808147
:100470008B7F808380818D7F808380818E7F80834E
:100480002698089587BD85B5886085BD84B582604E
:1004900084BD84B5816084BD84B58F7784BD84B507
:1004A0008F7B84BD84B58F7D84BD84B58F7E84BDF4
:1004B00085B58B7F85BD85B5826085BD85B58E7F11
:1004C00085BD089585B58B7F85BD85B58D7F85BD3F
:1004D00085B58E7F85BD0895882339F080916E00A3
:1004E000816080936E007894089580916E008E7F75
:1004F00080936E000895CF93DF93ACE7B0E08C91CA
:100500008F778C938C9180648C93EAE7F0E0808104
:100510008460808380818260808380818160808329
:10052000CEE7D0E08881816088838081806280838B
:10053000CBE7D0E088818F7D88838C918B7F8C93F3
:100540008C918D7F8C938C918E7F8C938081806831
:100550008083808180648083DF91CF910895892B8F
:1005600039F080917A00886080937A0078940895B9
:1005700080917A00877F80937A000895EAE7F0E01F
:1005800090819F779083ACE7B0E09C918770987FD3
:10059000892B8C93808180688083089580917C0072
:1005A000877008958091E80080FFFCCF089581E076
:1005B0008093D70080EA8093D80082E189BD09B496
:1005C00000FEFDCF80E98093D8001092E0001092E9
:1005D0001B01109218018CE08093E200789408953A
:1005E00080911B0108959FB7F89480911B01882387
:1005F00039F083E08093E9008091E80085FD03C035
:100600009FBF8FEF08958091F1002091E80025FDB4
:1006100003C02BE62093E8009FBF08959FB7F8948E
:1006200080911B01882331F083E08093E900809161
:10063000F20001C080E09FBF089580911B018823D4
:1006400071F08FB7F89493E09093E9002BE69091C6
:10065000E80095FF03C02093E800F9CF8FBF08950D
:1006600090911B01992371F09FB7F89424E0209397
:10067000E90020911901222349F02091E80025FD8D
:1006800003C09FBF8FEF0895109219012091E400DD
:10069000275E34E04091E80045FD12C09FBF909175
:1006A000E400921304C081E080931901EBCF909194
:1006B0001B01992339F39FB7F8943093E900EACFEF
:1006C0008093F1008091E80085FD03C08AE3809368
:1006D000E80085E080931A019FBF80E00895909123
:1006E0001B019923D1F09FB7F89424E02093E900EF
:1006F0002091E80025FD02C09FBF0FC08093F1004C
:100700008091E80085FD03C08AE38093E80085E0DE
:1007100080931A019FBF80E008958FEF0895EF92B4
:10072000FF921F93CF93DF937C01CB0120911B019C
:10073000222371F0AFB7F89424E02093E9002091D0
:100740001901222349F02091E80025FD03C0AFBF25
:100750008FEF42C210921901B4E0C0E4DAE315E071
:10076000009709F437C22091E400275E3091E80039
:1007700035FD12C0AFBF3091E400321304C081E0F8
:1007800080931901E5CF30911B01332309F3AFB7F3
:10079000F894B093E900EACF2091F2004C2F421B6D
:1007A000242F30E08217930708F4482F841B910907
:1007B00050E04134510508F0FDC14A5A5F4FFA013B
:1007C0000C94CE0AF70120812093F10097012F5F4E
:1007D0003F4F7901F70120812093F10097012F5FAE
:1007E0003F4F7901F70120812093F10097012F5F9E
:1007F0003F4F7901F70120812093F10097012F5F8E
:100800003F4F7901F70120812093F10097012F5F7D
:100810003F4F7901F70120812093F10097012F5F6D
:100820003F4F7901F70120812093F10097012F5F5D
:100830003F4F7901F70120812093F10097012F5F4D
:100840003F4F7901F70120812093F10097012F5F3D
:100850003F4F7901F70120812093F10097012F5F2D
:100860003F4F7901F70120812093F10097012F5F1D
:100870003F4F7901F70120812093F10097012F5F0D
:100880003F4F7901F70120812093F10097012F5FFD
:100890003F4F7901F70120812093F10097012F5FED
:1008A0003F4F7901F70120812093F10097012F5FDD
:1008B0003F4F7901F70120812093F10097012F5FCD
:1008C0003F4F7901F70120812093F10097012F5FBD
:1008D0003F4F7901F70120812093F10097012F5FAD
:1008E0003F4F7901F70120812093F10097012F5F9D
:1008F0003F4F7901F70120812093F10097012F5F8D
:100900003F4F7901F70120812093F10097012F5F7C
:100910003F4F7901F70120812093F10097012F5F6C
:100920003F4F7901F70120812093F10097012F5F5C
:100930003F4F7901F70120812093F10097012F5F4C
:100940003F4F7901F70120812093F10097012F5F3C
:100950003F4F7901F70120812093F10097012F5F2C
:100960003F4F7901F70120812093F10097012F5F1C
:100970003F4F7901F70120812093F10097012F5F0C
:100980003F4F7901F70120812093F10097012F5FFC
:100990003F4F7901F70120812093F10097012F5FEC
:1009A0003F4F7901F70120812093F10097012F5FDC
:1009B0003F4F7901F70120812093F10097012F5FCC
:1009C0003F4F7901F70120812093F10097012F5FBC
:1009D0003F4F7901F70120812093F10097012F5FAC
:1009E0003F4F7901F70120812093F10097012F5F9C
:1009F0003F4F7901F70120812093F10097012F5F8C
:100A00003F4F7901F70120812093F10097012F5F7B
:100A10003F4F7901F70120812093F10097012F5F6B
:100A20003F4F7901F70120812093F10097012F5F5B
:100A30003F4F7901F70120812093F10097012F5F4B
:100A40003F4F7901F70120812093F10097012F5F3B
:100A50003F4F7901F70120812093F10097012F5F2B
:100A60003F4F7901F70120812093F10097012F5F1B
:100A70003F4F7901F70120812093F10097012F5F0B
:100A80003F4F7901F70120812093F10097012F5FFB
:100A90003F4F7901F70120812093F10097012F5FEB
:100AA0003F4F7901F70120812093F10097012F5FDB
:100AB0003F4F7901F70120812093F10097012F5FCB
:100AC0003F4F7901F70120812093F10097012F5FBB
:100AD0003F4F7901F70120812093F10097012F5FAB
:100AE0003F4F7901F70120812093F10097012F5F9B
:100AF0003F4F7901F70120812093F10097012F5F8B
:100B00003F4F7901F70120812093F10097012F5F7A
:100B10003F4F7901F70120812093F10097012F5F6A
:100B20003F4F7901F70120812093F10097012F5F5A
:100B30003F4F7901F70120812093F10097012F5F4A
:100B40003F4F7901F70120812093F10097012F5F3A
:100B50003F4F7901F70120812093F10097012F5F2A
:100B60003F4F7901F70120812093F10097012F5F1A
:100B70003F4F7901F70120812093F10097012F5F0A
:100B80003F4F7901F70120812093F10097012F5FFA
:100B90003F4F7901F70120812093F10097012F5FEA
:100BA0003F4F7901F70120812093F10097012F5FDA
:100BB0003F4F7901F70120812093F10097012F5FCA
:100BC0003F4F79012091E80025FFD093E800109372
:100BD0001A01C6CDAFBF80E0DF91CF911F91FF908A
:100BE000EF9008958FB7F89490911A01992341F0EE
:100BF00094E09093E9009AE39093E80010921A0130
:100C00008FBF08958091060108958091070108958E
:100C10008091080108958091180108959FB7F89474
:100C200020911B01222339F022E02093E90030912A
:100C3000E80035FD03C09FBF8FEF089531EA309380
:100C4000F10030E23093F1001092F1001092F100C7
:100C50001092F1001092F1002093F1001092F10037
:100C60008093F1001092F1008AE38093E8009FBF27
:100C700080E008951F920F920FB60F9211248F9368
:100C80009F938091E1001092E10083FF11C01092C8
:100C9000E90091E09093EB001092EC0092E19093C8
:100CA000ED0098E09093F00010921B011092180153
:100CB00082FF13C080911B01882379F080911A0173
:100CC000882359F0815080931A01811106C084E075
:100CD0008093E9008AE38093E8009F918F910F90C1
:100CE0000FBE0F901F9018951F920F920FB60F9284
:100CF0001124EF92FF920F931F932F933F934F93E3
:100D00005F936F937F938F939F93AF93BF93EF9373
:100D1000FF93CF93DF931F92CDB7DEB71092E90018
:100D20008091E80083FF14C19091F1008091F1005F
:100D30003091F1002091F100E32EF12CF22A009184
:100D4000F1002091F10010E0122B2091F100609150
:100D5000F10032EF3093E800863009F046C036E00B
:100D600081E391E0FC01459154914E155F0539F402
:100D7000FC013296459154914017510721F0079696
:100D8000315081F7E5C0FC01349645915491FC0146
:100D90003696849130E0362B2F3F310519F010F054
:100DA0002FEF30E0281708F4822F3EEF9091E800F3
:100DB000292F2570D9F392FDCEC0982F813108F0EC
:100DC00090E1FA01292F222331F064916093F10020
:100DD00021503196F8CF490F511D891B3093E800FF
:100DE0008111E4CF903111F3B6C0853051F48EEF0C
:100DF0008093E8000E94D2028E2D80688093E300E9
:100E0000AAC0893059F5911180C0E0921B0110925F
:100E1000180110921A018EEF8093E80041E08AEDEC
:100E200091E04093E9009C012F5F3F4FFC015491FA
:100E30005093EB00552359F0F90124912093EC00D5
:100E40009C012D5F3F4F319684918093ED004F5F61
:100E5000453011F0C901E5CF8EE175C0883051F4FD
:100E6000903809F052C00E94D20280911B018093F9
:100E7000F10047C0813279F4913A09F046C00E94EE
:100E8000D202E2E0F1E081918093F10081E0E9306B
:100E9000F807C9F736C0803299F49132B1F58091E4
:100EA000E80082FFFCCFE2E0F1E08091F100819365
:100EB00081E0E930F807C9F78BEF8093E80021C0A3
:100EC000823241F4913209F043C0E09218010E944D
:100ED000D20217C0811119C099830E94D202998150
:100EE000923851F40093E9008091EB0085FB88274C
:100EF00080F91092E90001C080E08093F100109227
:100F0000F1008EEF8093E80026C0282F2D7F21303E
:100F1000F9F49230E9F4EF28D9F40F779FEF900FAE
:100F20009430B0F49EEF9093E8000093E900833092
:100F300079F089E18093EB0081E090E0002E01C020
:100F4000880F0A94EAF78093EA001092EA0003C03F
:100F500081E28093EB000F90DF91CF91FF91EF91B1
:100F6000BF91AF919F918F917F916F915F914F91C1
:100F70003F912F911F910F91FF90EF900F900FBE17
:100F80000F901F9018951F93CF93DF93EC01FE01F4
:100F90001491112351F01A3019F48DE00E9430039E
:100FA000812F0E9430032196F2CFDF91CF911F91C4
:100FB00008958A3010F490E301C097E3890F0C94F0
:100FC0003003CF93C82F82958F700E94D9078C2F42
:100FD0008F70CF910C94D907CF93C82F892F0E947F
:100FE000E1078C2FCF910C94E1070C94E107EF926D
:100FF000FF920F931F93CF93DF93CDB7DEB7279761
:101000000FB6F894DEBF0FBECDBF8E010F5F1F4F2E
:1010100027E0F80111922A95E9F74AE0B8010E9409
:10102000D40A7E01F8E0EF0EF11CF80181918F01E6
:1010300081110E9430030E151F05B9F727960FB6D0
:10104000F894DEBF0FBECDBFDF91CF911F910F91FE
:10105000FF90EF900895EF92FF920F931F93CF931D
:10106000DF9300D000D000D0CDB7DEB78E010F5F88
:101070001F4F26E0F80111922A95E9F74AE0B801DE
:101080000E94100B7E01F6E0EF0EF11CF801819139
:101090008F0181110E9430030E151F05B9F72696A6
:1010A0000FB6F894DEBF0FBECDBFDF91CF911F9179
:1010B0000F91FF90EF900895EF92FF920F931F937F
:1010C000CF93DF93CDB7DEB72B970FB6F894DEBF83
:1010D0000FBECDBF8E010F5F1F4F2BE0F8011192A5
:1010E0002A95E9F72AE0A8010E94DF0A7E01FCE0C8
:1010F000EF0EF11CF80181918F0181110E943003E4
:101100000E151F05B9F72B960FB6F894DEBF0FBE6C
:10111000CDBFDF91CF911F910F91FF90EF90089578
:10112000EF92FF920F931F93CF93DF93CDB7DEB76C
:101130002B970FB6F894DEBF0FBECDBF8E010F5FA9
:101140001F4F2BE0F80111922A95E9F72AE0A80138
:101150000E94EE0A7E01FBE0EF0EF11CF801819186
:101160008F0181110E9430030E151F05B9F72B96D0
:101170000FB6F894DEBF0FBECDBFDF91CF911F91A8
:101180000F91FF90EF90089580E880936100109296
:1011900061008FEF0E94420281E00E946C020E9477
:1011A0007B0281E090E00E94AF0225982D9A0E9478
:1011B000D70280910E0190910F010E942B088EE2C0
:1011C00091E00E94C307F5CF5058BB27AA270ED045
:1011D00048C139D130F03ED120F031F49F3F11F4B5
:1011E0001EF42EC10EF4E095E7FB24C1E92F4AD18D
:1011F00080F3BA17620773078407950718F071F434
:101200009EF562C10EF4E0950B2EBA2FA02D0B01B6
:10121000B90190010C01CA01A0011124FF27591B3B
:1012200099F0593F50F4503E68F11A16F040A22F41
:10123000232F342F4427585FF3CF469537952795B2
:10124000A795F0405395C9F77EF41F16BA0B620BB1
:10125000730B840BBAF09150A1F0FF0FBB1F661FF8
:10126000771F881FC2F70EC0BA0F621F731F841F3B
:1012700048F4879577956795B795F7959E3F08F061
:10128000B3CF9395880F08F09927EE0F9795879520
:1012900008950CD0E6C0DED040F0D5D030F021F477
:1012A0005F3F19F0C7C0511110C1CAC0EBD098F30D
:1012B0009923C9F35523B1F3951B550BBB27AA27D7
:1012C00062177307840738F09F5F5F4F220F331F49
:1012D000441FAA1FA9F333D00E2E3AF0E0E830D015
:1012E00091505040E695001CCAF729D0FE2F27D018
:1012F000660F771F881FBB1F261737074807AB07E6
:10130000B0E809F0BB0B802DBF01FF2793585F4F5A
:101310002AF09E3F510568F08DC0D7C05F3FECF3C7
:10132000983EDCF3869577956795B795F7959F5F1F
:10133000C9F7880F911D9695879597F90895E1E073
:10134000660F771F881FBB1F621773078407BA07D2
:1013500020F0621B730B840BBA0BEE1F88F7E0952D
:10136000089598D088F09F5790F0B92F9927B751DA
:10137000A0F0D1F0660F771F881F991F1AF0BA9559
:10138000C9F712C0B13081F09FD0B1E008959CC080
:10139000672F782F8827B85F39F0B93FCCF386954F
:1013A00077956795B395D9F73EF4909580957095AC
:1013B00061957F4F8F4F9F4F0895E89409C097FB29
:1013C0003EF490958095709561957F4F8F4F9F4F1C
:1013D0009923A9F0F92F96E9BB279395F695879560
:1013E00077956795B795F111F8CFFAF4BB0F11F423
:1013F00060FF1BC06F5F7F4F8F4F9F4F16C08823CA
:1014000011F096E911C0772321F09EE8872F762FFF
:1014100005C0662371F096E8862F70E060E02AF040
:101420009A95660F771F881FDAF7880F969587952C
:1014300097F9089597F99F6780E870E060E0089554
:101440009FEF80EC089500240A94161617061806DC
:101450000906089500240A941216130614060506B8
:101460000895092E0394000C11F4882352F0BB0F49
:1014700040F4BF2B11F460FF04C06F5F7F4F8F4FAC
:101480009F4F089557FD9058440F551F59F05F3FE7
:1014900071F04795880F97FB991F61F09F3F79F096
:1014A00087950895121613061406551FF2CF469518
:1014B000F1DF08C0161617061806991FF1CF86959A
:1014C0007105610508940895E894BB27662777277E
:1014D000CB0197F908950BD0C4CFB5DF28F0BADF60
:1014E00018F0952309F0A6CFABCF1124EECFCADFB9
:1014F000A0F3959FD1F3950F50E0551F629FF00127
:10150000729FBB27F00DB11D639FAA27F00DB11D7F
:10151000AA1F649F6627B00DA11D661F829F222708
:10152000B00DA11D621F739FB00DA11D621F839F8F
:10153000A00D611D221F749F3327A00D611D231F65
:10154000849F600D211D822F762F6A2F11249F57B3
:1015500050408AF0E1F088234AF0EE0FFF1FBB1FD6
:10156000661F771F881F91505040A9F79E3F510575
:1015700070F060CFAACF5F3FECF3983EDCF3869526
:1015800077956795B795F795E7959F5FC1F7FE2B20
:10159000880F911D9695879597F90895EE0FFF1F77
:1015A0000590F491E02D0994BB274A3031F499233A
:1015B00022F4BDE2909581959F4F0C94110BBB27AF
:1015C0002A3051F4992342F4BDE2909580957095AC
:1015D00061957F4F8F4F9F4F0C94EF0ABB27FA0105
:1015E000A62F6217710581059105330B30FB66F05C
:1015F000AA27660F771F881F991FAA1FA21710F02E
:10160000A21B63953850A9F7A05DAA3308F0A95D25
:10161000A19336F7B111B1931082CA010C942A0B31
:10162000BB27FB015527AA27880F991FAA1FA417BC
:1016300010F0A41B83955051B9F7A05DAA3308F0B0
:10164000A95DA193009779F7B111B1931192CB01E4
:101650000C942A0BDC01FC01672F71917723E1F7D1
:10166000329704C07C916D9370836291AE17BF076F
:08167000C8F30895F894FFCFC0
:0A167800C80000E1000000000800B7
:00000001FF
