:100000000C94F6000C9413010C9413010C9413013E
:100010000C9413010C9413010C9413010C94130110
:100020000C9413010C9413010C94C6050C94000657
:100030000C9413010C9413010C9413010C941301F0
:100040000C9413010C9413010C9413010C941301E0
:100050000C9413010C9413010C9413010C941501CE
:100060000C9413010C9413010C9413010C941301C0
:100070000C9413010C9444010C9413010C9413017F
:100080000C9413010C9413010C9413010C941301A0
:100090000C9413010C9413010C9413010C94130190
:1000A0000C9413010C9413010C9413016E05660556
:1000B0005E0556054E0546053E0536052E05260508
:1000C0001E0516050E050605FE04F604EE04E604FC
:1000D000DE04D604CE04C604BE04B604AE04A604F0
:1000E0009E0496048E0486047E0476046E046604E0
:1000F0005E0456044E0446043E0436042E042604D0
:100100001E0416040E040604FE03F603EE03E603C3
:10011000DE03D603CE03C603BE03B603AE03A603B7
:100120009E0396038E0386037E0376036E030A0DF9
:1001300000090068656C6C6F0000010000D00112BE
:10014000000200008D014300030000890104010347
:100150000904750112020309046D01060303090471
:100160006301080803340031003000000006034D2D
:10017000003200000012034A002E002000460069F1
:100180000065006E006500000004030904090243D5
:1001900000020100C0320904000001020201000552
:1001A000240010010524010101042402060524068F
:1001B00000010705820310004009040100020A0043
:1001C000000007050302400000070584024000000C
:1001D0001201000202000010C0167A0400010102A0
:1001E00003010001C11201803601813611241FBEB6
:1001F000CFEFDAE0DEBFCDBF11E0A0E0B1E0EEE48A
:10020000FAE102C005900D92A830B107D9F721E0BC
:10021000A8E0B1E001C01D92A732B207E1F70E9449
:10022000520B0C94250D0C9400001F920F920FB6E8
:100230000F9211242F933F934F935F936F937F936C
:100240008F939F93AF93BF93EF93FF93809115018B
:10025000909116010E94520A882329F06A9A8EB161
:1002600094E089278EB9FF91EF91BF91AF919F9153
:100270008F917F916F915F914F913F912F910F904F
:100280000FBE0F901F9018951F920F920FB60F92EE
:1002900011240F900FBE0F901F901895CF93DF93EE
:1002A00000D000D0CDB7DEB79A01AB01909310011A
:1002B00080930F019093890080938800BC0180E0B7
:1002C00090E029833A834B835C830E94C80B298189
:1002D0003A814B815C810E942E0C0E949C0B709392
:1002E0008B0060938A00E1E8F0E080818061808388
:1002F000808188608083A0E8B0E08C9182608C93DC
:100300008C9181608C938C9180628C938C918F7E88
:100310008C9380818B7F80838081826080838081C9
:100320008E7F8083269A0F900F900F900F90DF9111
:10033000CF910895CF93DF9300D000D0CDB7DEB733
:100340009B01AC0160910F017091100180E090E081
:1003500029833A834B835C830E94C80B29813A81AD
:100360004B815C810E942E0C0E949C0B70938B0031
:1003700060938A000F900F900F900F90DF91CF91B4
:100380000895E1E8F0E080818B7F808380818D7F1C
:10039000808380818E7F80832698089587BD85B570
:1003A000886085BD84B5826084BD84B5816084BD6C
:1003B00084B58F7784BD84B58F7B84BD84B58F7DF4
:1003C00084BD84B58F7E84BD85B58B7F85BD85B5A5
:1003D000826085BD85B58E7F85BD089585B58B7F8F
:1003E00085BD85B58D7F85BD85B58E7F85BD08951D
:1003F000882339F080916E00816080936E0078943C
:10040000089580916E008E7F80936E000895CF9343
:10041000DF93ACE7B0E08C918F778C938C91806404
:100420008C93EAE7F0E08081846080838081826041
:100430008083808181608083CEE7D0E08881816085
:100440008883808180628083CBE7D0E088818F7D44
:1004500088838C918B7F8C938C918D7F8C938C91E6
:100460008E7F8C938081806880838081806480838C
:10047000DF91CF910895892B39F080917A008860BF
:1004800080937A007894089580917A00877F809392
:100490007A000895EAE7F0E090819F779083ACE7D7
:1004A000B0E09C918770987F892B8C9380818068C5
:1004B0008083089580917C00877008958091E80082
:1004C00080FFFCCF089581E08093D70080EA80937D
:1004D000D80082E189BD09B400FEFDCF80E9809398
:1004E000D8001092E00010921401109211018CE0DB
:1004F0008093E200789408958091140108959FB745
:10050000F89480911401882339F083E08093E90006
:100510008091E80085FD03C09FBF8FEF0895809113
:10052000F1002091E80025FD03C02BE62093E800B0
:100530009FBF08959FB7F89480911401882331F0EC
:1005400083E08093E9008091F20001C080E09FBFCA
:10055000089580911401882371F08FB7F89493E087
:100560009093E9002BE69091E80095FF03C020935B
:10057000E800F9CF8FBF089590911401992371F08D
:100580009FB7F89424E02093E900209112012223E0
:1005900049F02091E80025FD03C09FBF8FEF08952B
:1005A000109212012091E400275E34E04091E800AF
:1005B00045FD12C09FBF9091E400921304C081E0FA
:1005C00080931201EBCF90911401992339F39FB7D7
:1005D000F8943093E900EACF8093F1008091E8002D
:1005E00085FD03C08AE38093E80085E080931301D2
:1005F0009FBF80E00895909114019923D1F09FB797
:10060000F89424E02093E9002091E80025FD02C041
:100610009FBF0FC08093F1008091E80085FD03C06B
:100620008AE38093E80085E0809313019FBF80E018
:1006300008958FEF0895EF92FF921F93CF93DF936A
:100640007C01CB0120911401222371F0AFB7F89403
:1006500024E02093E90020911201222349F0209107
:10066000E80025FD03C0AFBF8FEF42C21092120118
:10067000B4E0C0E4DAE315E0009709F437C2209152
:10068000E400275E3091E80035FD12C0AFBF309125
:10069000E400321304C081E080931201E5CF309171
:1006A0001401332309F3AFB7F894B093E900EACF0C
:1006B0002091F2004C2F421B242F30E08217930729
:1006C00008F4482F841B910950E04134510508F08B
:1006D000FDC14A5A5F4FFA010C94B90CF701208111
:1006E0002093F10097012F5F3F4F7901F70120819F
:1006F0002093F10097012F5F3F4F7901F70120818F
:100700002093F10097012F5F3F4F7901F70120817E
:100710002093F10097012F5F3F4F7901F70120816E
:100720002093F10097012F5F3F4F7901F70120815E
:100730002093F10097012F5F3F4F7901F70120814E
:100740002093F10097012F5F3F4F7901F70120813E
:100750002093F10097012F5F3F4F7901F70120812E
:100760002093F10097012F5F3F4F7901F70120811E
:100770002093F10097012F5F3F4F7901F70120810E
:100780002093F10097012F5F3F4F7901F7012081FE
:100790002093F10097012F5F3F4F7901F7012081EE
:1007A0002093F10097012F5F3F4F7901F7012081DE
:1007B0002093F10097012F5F3F4F7901F7012081CE
:1007C0002093F10097012F5F3F4F7901F7012081BE
:1007D0002093F10097012F5F3F4F7901F7012081AE
:1007E0002093F10097012F5F3F4F7901F70120819E
:1007F0002093F10097012F5F3F4F7901F70120818E
:100800002093F10097012F5F3F4F7901F70120817D
:100810002093F10097012F5F3F4F7901F70120816D
:100820002093F10097012F5F3F4F7901F70120815D
:100830002093F10097012F5F3F4F7901F70120814D
:100840002093F10097012F5F3F4F7901F70120813D
:100850002093F10097012F5F3F4F7901F70120812D
:100860002093F10097012F5F3F4F7901F70120811D
:100870002093F10097012F5F3F4F7901F70120810D
:100880002093F10097012F5F3F4F7901F7012081FD
:100890002093F10097012F5F3F4F7901F7012081ED
:1008A0002093F10097012F5F3F4F7901F7012081DD
:1008B0002093F10097012F5F3F4F7901F7012081CD
:1008C0002093F10097012F5F3F4F7901F7012081BD
:1008D0002093F10097012F5F3F4F7901F7012081AD
:1008E0002093F10097012F5F3F4F7901F70120819D
:1008F0002093F10097012F5F3F4F7901F70120818D
:100900002093F10097012F5F3F4F7901F70120817C
:100910002093F10097012F5F3F4F7901F70120816C
:100920002093F10097012F5F3F4F7901F70120815C
:100930002093F10097012F5F3F4F7901F70120814C
:100940002093F10097012F5F3F4F7901F70120813C
:100950002093F10097012F5F3F4F7901F70120812C
:100960002093F10097012F5F3F4F7901F70120811C
:100970002093F10097012F5F3F4F7901F70120810C
:100980002093F10097012F5F3F4F7901F7012081FC
:100990002093F10097012F5F3F4F7901F7012081EC
:1009A0002093F10097012F5F3F4F7901F7012081DC
:1009B0002093F10097012F5F3F4F7901F7012081CC
:1009C0002093F10097012F5F3F4F7901F7012081BC
:1009D0002093F10097012F5F3F4F7901F7012081AC
:1009E0002093F10097012F5F3F4F7901F70120819C
:1009F0002093F10097012F5F3F4F7901F70120818C
:100A00002093F10097012F5F3F4F7901F70120817B
:100A10002093F10097012F5F3F4F7901F70120816B
:100A20002093F10097012F5F3F4F7901F70120815B
:100A30002093F10097012F5F3F4F7901F70120814B
:100A40002093F10097012F5F3F4F7901F70120813B
:100A50002093F10097012F5F3F4F7901F70120812B
:100A60002093F10097012F5F3F4F7901F70120811B
:100A70002093F10097012F5F3F4F7901F70120810B
:100A80002093F10097012F5F3F4F7901F7012081FB
:100A90002093F10097012F5F3F4F7901F7012081EB
:100AA0002093F10097012F5F3F4F7901F7012081DB
:100AB0002093F10097012F5F3F4F7901F7012081CB
:100AC0002093F10097012F5F3F4F7901F7012081BB
:100AD0002093F10097012F5F3F4F79012091E800AB
:100AE00025FFD093E80010931301C6CDAFBF80E07F
:100AF000DF91CF911F91FF90EF9008958FB7F894F9
:100B000090911301992341F094E09093E9009AE3C6
:100B10009093E800109213018FBF08958091040113
:100B200008958091050108958091060108958091AE
:100B3000110108959FB7F89420911401222339F0F0
:100B400022E02093E9003091E80035FD03C09FBF0B
:100B50008FEF089531EA3093F10030E23093F100E5
:100B60001092F1001092F1001092F1001092F10039
:100B70002093F1001092F1008093F1001092F100A7
:100B80008AE38093E8009FBF80E008951F920F9250
:100B90000FB60F9211248F939F938091E1001092D2
:100BA000E10083FF11C01092E90091E09093EB0007
:100BB0001092EC0092E19093ED0098E09093F00099
:100BC000109214011092110182FF13C08091140140
:100BD000882379F080911301882359F08150809304
:100BE0001301811106C084E08093E9008AE38093B9
:100BF000E8009F918F910F900FBE0F901F90189556
:100C00001F920F920FB60F921124EF92FF920F9343
:100C10001F932F933F934F935F936F937F938F9384
:100C20009F93AF93BF93EF93FF93CF93DF931F9265
:100C3000CDB7DEB71092E9008091E80083FF14C1C0
:100C40009091F1008091F1003091F1002091F1003C
:100C5000E32EF12CF22A0091F1002091F10010E036
:100C6000122B2091F1006091F10032EF3093E800F7
:100C7000863009F046C036E089E391E0FC014591F9
:100C800054914E155F0539F4FC013296459154910B
:100C90004017510721F00796315081F7E5C0FC015C
:100CA000349645915491FC013696849130E0362B70
:100CB0002F3F310519F010F02FEF30E0281708F41E
:100CC000822F3EEF9091E800292F2570D9F392FDF5
:100CD000CEC0982F813108F090E1FA01292F22230C
:100CE00031F064916093F10021503196F8CF490FB3
:100CF000511D891B3093E8008111E4CF903111F32D
:100D0000B6C0853051F48EEF8093E8000E945E02F9
:100D10008E2D80688093E300AAC0893059F5911127
:100D200080C0E092140110921101109213018EEF15
:100D30008093E80041E082EE91E04093E9009C015D
:100D40002F5F3F4FFC0154915093EB00552359F016
:100D5000F90124912093EC009C012D5F3F4F3196C7
:100D600084918093ED004F5F453011F0C901E5CFCC
:100D70008EE175C0883051F4903809F052C00E945D
:100D80005E02809114018093F10047C0813279F4B2
:100D9000913A09F046C00E945E02E0E0F1E08191E4
:100DA0008093F10081E0E730F807C9F736C0803260
:100DB00099F49132B1F58091E80082FFFCCFE0E038
:100DC000F1E08091F100819381E0E730F807C9F705
:100DD0008BEF8093E80021C0823241F4913209F018
:100DE00043C0E09211010E945E0217C0811119C038
:100DF00099830E945E029981923851F40093E90030
:100E00008091EB0085FB882780F91092E90001C0F2
:100E100080E08093F1001092F1008EEF8093E80063
:100E200026C0282F2D7F2130F9F49230E9F4EF28E5
:100E3000D9F40F779FEF900F9430B0F49EEF90931A
:100E4000E8000093E900833079F089E18093EB00BA
:100E500081E090E0002E01C0880F0A94EAF78093A9
:100E6000EA001092EA0003C081E28093EB000F9049
:100E7000DF91CF91FF91EF91BF91AF919F918F91B2
:100E80007F916F915F914F913F912F911F910F91A2
:100E9000FF90EF900F900FBE0F901F9018951F932B
:100EA000CF93DF93EC01FE011491112351F01A301E
:100EB00019F48DE00E94BC02812F0E94BC02219691
:100EC000F2CFDF91CF911F9108958A3010F490E313
:100ED00001C097E3890F0C94BC02CF93C82F829571
:100EE0008F700E9465078C2F8F70CF910C946507CF
:100EF000CF93C82F892F0E946D078C2FCF910C9410
:100F00006D070C946D07EF92FF920F931F93CF9391
:100F1000DF93CDB7DEB727970FB6F894DEBF0FBECD
:100F2000CDBF8E010F5F1F4F27E0F80111922A9568
:100F3000E9F74AE0B8010E94BF0C7E01F8E0EF0E2D
:100F4000F11CF80181918F0181110E94BC020E15E4
:100F50001F05B9F727960FB6F894DEBF0FBECDBFB9
:100F6000DF91CF911F910F91FF90EF900895EF9235
:100F7000FF920F931F93CF93DF9300D000D000D048
:100F8000CDB7DEB78E010F5F1F4F26E0F80111923B
:100F90002A95E9F74AE0B8010E94FB0C7E01F6E0D1
:100FA000EF0EF11CF80181918F0181110E94BC02AA
:100FB0000E151F05B9F726960FB6F894DEBF0FBEC3
:100FC000CDBFDF91CF911F910F91FF90EF900895CA
:100FD000EF92FF920F931F93CF93DF93CDB7DEB7BE
:100FE0002B970FB6F894DEBF0FBECDBF8E010F5FFB
:100FF0001F4F2BE0F80111922A95E9F72AE0A8018A
:101000000E94CA0C7E01FCE0EF0EF11CF8018191F8
:101010008F0181110E94BC020E151F05B9F72B9696
:101020000FB6F894DEBF0FBECDBFDF91CF911F91F9
:101030000F91FF90EF900895EF92FF920F931F93FF
:10104000CF93DF93CDB7DEB72B970FB6F894DEBF03
:101050000FBECDBF8E010F5F1F4F2BE0F801119225
:101060002A95E9F72AE0A8010E94D90C7E01FBE04D
:10107000EF0EF11CF80181918F0181110E94BC02D9
:101080000E151F05B9F72B960FB6F894DEBF0FBEED
:10109000CDBFDF91CF911F910F91FF90EF900895F9
:1010A000589A599A5A9A8CE08093B800E9E6F0E091
:1010B00080818062808380818F7E8083EA9A7894A9
:1010C000089584E88093BC008091BC0087FFFCCF2A
:1010D0008091BB00089584E98093BC00089520E0CE
:1010E00030E08091BC0087FD06C02F5F3F4F293E56
:1010F00083E03807B1F781E0283E334009F480E00F
:1011000008958093BB0084E88093BC000E946F0820
:10111000882321F08091B900887F089580E00895A8
:101120001F93CF93DF931F92CDB7DEB7182F84EABA
:101130008093BC0069830E946F086981811104C09B
:1011400094E99093BC0014C0812F880F662331F07E
:101150008F5F0E948108883451F404C00E94810886
:10116000803229F484E98093BC0080E001C081E0F2
:101170000F90DF91CF911F910895CF93DF93C82FE8
:10118000D62F60E00E949008882391F08D2F0E9456
:101190008108882369F084E98093BC0061E08C2F8A
:1011A0000E949008882321F0DF91CF910C94610870
:1011B00080E0DF91CF910895CF93DF93D62FC42F96
:1011C00060E00E949008811102C080E00EC08D2F67
:1011D0000E9481088823C9F38C2F0E9481088823EC
:1011E000A1F384E98093BC0081E0DF91CF91089561
:1011F000CF93DF9300D01F92CDB7DEB74B836A83C6
:1012000089830E94500894EA9093BC0089816A8186
:101210004B819091BC0097FFFCCF90E59093BB0071
:1012200094E89093BC009091BC0097FFFCCF909104
:10123000B900987F903229F484E98093BC0080E063
:1012400029C091E09093BB0094E89093BC009091EA
:10125000BC0097FFFCCF8093BB0084E88093BC0068
:101260008091BC0087FFFCCF6093BB0084E8809333
:10127000BC008091BC0087FFFCCF4093BB0084E89A
:101280008093BC008091BC0087FFFCCF84E98093F1
:10129000BC0081E00F900F900F90DF91CF910895E7
:1012A00024EA2093BC002091BC0027FFFCCF21E55D
:1012B0002093BB0024E82093BC002091BC0027FFB2
:1012C000FCCF2091B900287F2834A9F024EC20938A
:1012D000BC002091BC0027FFFCCF2091BB0026134F
:1012E0000AC0FC0120E030E0772767FD709561506F
:1012F000710944EC0EC084E98093BC0080E008953D
:101300005091BC0057FFFCCF5091BB0051932F5F11
:101310003F4F261737071CF44093BC00F1CF44E839
:101320004093BC004091BC0047FFFCCF4091BB0004
:10133000FC01E20FF31F408384E98093BC0081E04D
:101340000895F89494EA9093BC009091BC0097FFA4
:10135000FCCF90E59093BB0094E89093BC009091F3
:10136000BC0097FFFCCF9091B900987F903231F488
:1013700084E98093BC00789480E0089593E0909392
:10138000BB0094E89093BC009091BC0097FFFCCF09
:101390008093BB0084E88093BC008091BC0087FFF1
:1013A000FCCFFB01552747FD509524E8CF01861B54
:1013B000970B8417950754F481918093BB00209379
:1013C000BC008091BC0087FFFCCFF0CF84E9809304
:1013D000BC00789481E00895CF93DF93D82FC62F77
:1013E000843010F080E05BC06430E0F70E94500869
:1013F0002FEF85EA9EE0215080409040E1F700C049
:10140000000065E789E60E94BD08883659F741E08B
:101410006BE689E60E94DC084D2F440F440F440F11
:101420006CE189E60E94DC084C2F440F440F440F06
:101430006BE189E60E94DC0842E067E389E60E94EE
:10144000DC0840E062E08EE10E94DC0840E067E3F7
:1014500089E60E94DC084EE164E389E60E94DC082C
:1014600041E067E689E60E94DC084DE164E289E636
:101470000E94DC084EE965E289E60E94DC0843E050
:1014800066E289E60E94DC0846E967E289E60E9496
:10149000DC0840E26AE689E60E94DC0881E0DF9130
:1014A000CF910895EF92FF920F931F93CF93DF9305
:1014B000CDB7DEB765970FB6F894DEBF0FBECDBFD0
:1014C0008C01CE0101967C019EE4692F89E69D8BFB
:1014D0000E94BD08F70181937F019D8991509A3345
:1014E000A1F78F859889F801958384838F819885EA
:1014F0009387828789819A81918B808B89899A8948
:101500009383828389859A85918780878B819C814B
:10151000978786878B899C89918380838B859C851F
:10152000978386838D819E819587848781E06596E8
:101530000FB6F894DEBF0FBECDBFDF91CF911F91E4
:101540000F91FF90EF900895EF92FF920F931F93EA
:10155000CF93DF93CDB7DEB727970FB6F894DEBFF2
:101560000FBECDBF8C01CE0101967C0190E4692FA6
:1015700089E69F830E94BD08F70181937F019F81C7
:1015800091509A33A1F789819A81F80195838483D8
:101590008B819C81938382838D819E8191838083C3
:1015A00081E027960FB6F894DEBF0FBECDBFDF9166
:1015B000CF911F910F91FF90EF900895EF92FF92BE
:1015C0000F931F93CF93DF93CDB7DEB727970FB657
:1015D000F894DEBF0FBECDBF8C01CE0101967C0119
:1015E00098E4692F89E69F830E94BD08F7018193E3
:1015F0007F019F8191509234A1F789819A81F801EE
:10160000958384838B819C81938382838D819E814A
:101610009183808381E027960FB6F894DEBF0FBEDA
:10162000CDBFDF91CF911F910F91FF90EF90089563
:10163000EF92FF920F931F93CF93DF93CDB7DEB757
:1016400027970FB6F894DEBF0FBECDBF8C01CE0139
:1016500001967C019EE4692F89E69F830E94BD0864
:10166000F70181937F019F8191509834A1F789817F
:101670009A81F801958384838B819C8193838283F3
:101680008D819E819183808381E027960FB6F894A7
:10169000DEBF0FBECDBFDF91CF911F910F91FF90A5
:1016A000EF9008956E9A8EB11EB880E88093610025
:1016B000109261000E94630260E080E00E94EC09E9
:1016C0008AEF0E94CE0181E00E94F80143E06BE6C0
:1016D00081E00E94F80810E483E391E00E944F0744
:1016E0006E9A8EB181278EB92FEF89E698E121504D
:1016F00080409040E1F700C0000080910B01909184
:101700000C01892B49F3C5E1D1E0E991F991808180
:1017100091810E94830781E391E00E944F0721E0BD
:10172000C732D20791F78EE291E00E944F071092E4
:101730000C0110920B01D0CF70D088F09F5790F021
:10174000B92F9927B751A0F0D1F0660F771F881FE6
:10175000991F1AF0BA95C9F712C0B13081F077D04D
:10176000B1E0089574C0672F782F8827B85F39F0EB
:10177000B93FCCF3869577956795B395D9F73EF445
:1017800090958095709561957F4F8F4F9F4F0895ED
:10179000E89409C097FB3EF490958095709561950B
:1017A0007F4F8F4F9F4F9923A9F0F92F96E9BB27C1
:1017B0009395F695879577956795B795F111F8CF3D
:1017C000FAF4BB0F11F460FF1BC06F5F7F4F8F4FA8
:1017D0009F4F16C0882311F096E911C0772321F09E
:1017E0009EE8872F762F05C0662371F096E8862F36
:1017F00070E060E02AF09A95660F771F881FDAF78D
:10180000880F9695879597F9089557FD9058440F3E
:10181000551F59F05F3F71F04795880F97FB991F4F
:1018200061F09F3F79F0879508951216130614060C
:10183000551FF2CF4695F1DF08C016161706180699
:10184000991FF1CF86957105610508940895E89474
:10185000BB2766277727CB0197F908950BD078C06F
:1018600069D028F06ED018F0952309F05AC05FC0F7
:101870001124EECFCADFA0F3959FD1F3950F50E06E
:10188000551F629FF001729FBB27F00DB11D639F32
:10189000AA27F00DB11DAA1F649F6627B00DA11DD8
:1018A000661F829F2227B00DA11D621F739FB00D7E
:1018B000A11D621F839FA00D611D221F749F3327EE
:1018C000A00D611D231F849F600D211D822F762F87
:1018D0006A2F11249F5750408AF0E1F088234AF084
:1018E000EE0FFF1FBB1F661F771F881F91505040D0
:1018F000A9F79E3F510570F014C0AACF5F3FECF3EB
:10190000983EDCF3869577956795B795F795E795BB
:101910009F5FC1F7FE2B880F911D9695879597F9CC
:10192000089597F99F6780E870E060E008959FEF61
:1019300080EC089500240A94161617061806090666
:10194000089500240A941216130614060506089535
:10195000092E0394000C11F4882352F0BB0F40F4BD
:10196000BF2B11F460FF04C06F5F7F4F8F4F9F4FFD
:101970000895EE0FFF1F0590F491E02D0994BB2709
:101980004A3031F4992322F4BDE2909581959F4F1E
:101990000C94FC0CBB272A3051F4992342F4BDE28D
:1019A00090958095709561957F4F8F4F9F4F0C94C8
:1019B000DA0CBB27FA01A62F621771058105910584
:1019C000330B30FB66F0AA27660F771F881F991F1D
:1019D000AA1FA21710F0A21B63953850A9F7A05DAB
:1019E000AA3308F0A95DA19336F7B111B193108223
:1019F000CA010C94150DBB27FB015527AA27880F98
:101A0000991FAA1FA41710F0A41B83955051B9F772
:101A1000A05DAA3308F0A95DA193009779F7B111F1
:101A2000B1931192CB010C94150DDC01FC01672FD1
:101A300071917723E1F7329704C07C916D937083A5
:0E1A40006291AE17BF07C8F30895F894FFCF68
:081A4E0000E1000000000800A7
:00000001FF
