:100000000C942E010C944B010C944B010C944B015D
:100010000C944B010C944B010C944B010C944B0130
:100020000C944B010C944B010C9486080C94C00862
:100030000C944B010C944B010C944B010C944B0110
:100040000C944B010C944B010C944B010C944B0100
:100050000C944B010C944B010C944B010C94D60363
:100060000C944B010C944B010C944B010C944B01E0
:100070000C944B010C944B010C944B010C944B01D0
:100080000C944B010C944B010C944B010C944B01C0
:100090000C944B010C944B010C944B010C944B01B0
:1000A0000C944B010C944B010C944B012E08260828
:1000B0001E0816080E080608FE07F607EE07E607F4
:1000C000DE07D607CE07C607BE07B607AE07A607E8
:1000D0009E0796078E0786077E0776076E076607D8
:1000E0005E0756074E0746073E0736072E072607C8
:1000F0001E0716070E070607FE06F606EE06E606BC
:10010000DE06D606CE06C606BE06B606AE06A606AF
:100110009E0696068E0686067E0676066E0666069F
:100120005E0656064E0646063E0636062E06084A69
:10013000D73B3BCE016E84BCBFFDC12F3D6C7431FB
:100140009ABD56833DDA3D00C77F11BED9E4BB4C52
:100150003E916BAAAABE000000803F000A0D000974
:1001600020416E676C6520457374696D617465200C
:10017000436F6D62696E6174696F6E3A2000092089
:100180004779726F20416E676C652046696C7465B3
:10019000723A2000092041636320416E676C65203C
:1001A00046696C7465723A2000000100004002123A
:1001B00000020000FD014300030000F901040103F7
:1001C0000904E5011202030904DD01060303090421
:1001D000D301080803340031003000000006034D4D
:1001E000003200000012034A002E00200046006981
:1001F0000065006E00650000000403090409024365
:1002000000020100C03209040000010202010005E1
:10021000240010010524010101042402060524061E
:1002200000010705820310004009040100020A00D2
:10023000000007050302400000070584024000009B
:100240001201000202000010C0167A04000101022F
:1002500003010001C11201803601813611241FBE45
:10026000CFEFDAE0DEBFCDBF11E0A0E0B1E0E8E41F
:10027000F2E202C005900D92A830B107D9F721E053
:10028000A8E0B1E001C01D92A835B207E1F70E94D5
:10029000120E0C9422110C9400008F929F92AF9238
:1002A000BF92CF92DF92EF92FF92CF93DF93A09015
:1002B0004201B0904301C0914601D091470122E52F
:1002C00038EB4EE75FE3609138017091390180911E
:1002D0003A0190913B010E9450106B017C01B501E5
:1002E000882777FD8095982F0E94700F90582AE0FC
:1002F00037ED43EA5BE30E9450109B01AC01C7015C
:10030000B6010E94450E6B017C0160933801709329
:10031000390180933A0190933B0122E538EB4EE797
:100320005FE36091340170913501809136019091C5
:1003300037010E9450104B015C01BE01882777FDF8
:100340008095982F0E94700F2AE037ED43EA5BE317
:100350000E9450109B01AC01C501B4010E94450EE2
:100360004B015C0120E030E0A9010E94D10E8823FE
:1003700049F08092340190923501A0923601B092FA
:1003800037010CC08AE097EDA3E2BCE3809334010F
:1003900090933501A0933601B09337012091340139
:1003A000309135014091360150913701C701B601B6
:1003B0000E94D50E0E94A90E609330017093310106
:1003C000809332019093330184E991E00E940F0AF7
:1003D00020E030E04AE754E460913001709131014F
:1003E00080913201909133010E9450100E943D0F84
:1003F000CB010E94430A60913001709131018091DC
:10040000320190913301DF91CF91FF90EF90DF9017
:10041000CF90BF90AF909F908F900895CF92DF9232
:10042000EF92FF9260914A0170914B0170932F01FE
:1004300060932E01C0902A01D0902B01E0902C01F6
:10044000F0902D01C0922601D0922701E092280160
:10045000F0922901882777FD8095982F0E94700FD0
:100460002FEF35E042E85BE30E94501022EE30E0CF
:100470004AE75CE30E9450109B01AC01C701B60142
:100480000E94450E60932A0170932B0180932C01EA
:1004900090932D01A70196010E94440E2091220104
:1004A0003091230140912401509125010E94450E75
:1004B00022E538EB4EE75FE30E9450106093220183
:1004C0007093230180932401909325018EE791E09E
:1004D0000E940F0A23EC35EF48E450E460912201BA
:1004E0007091230180912401909125010E94501068
:1004F00020E030E04AE754E40E94501020E030E071
:1005000044E353E40E94D50E0E943D0FCB010E94AC
:10051000430A23EC35EF48E450E4609122017091E6
:10052000230180912401909125010E94501020E028
:1005300030E044E353E40E94D50EFF90EF90DF904B
:10054000CF900895289A892B19F0299A2A9A08950C
:1005500029982A9808954F925F926F927F928F9276
:100560009F92AF92BF92CF92DF92EF92FF92CF9382
:10057000DF938FE591E00E940F0A20E030E04AE728
:1005800054E460911E0170911F01809120019091AF
:1005900021010E9450100E943D0FCB010E94430A8E
:1005A00080911E0190911F01A0912001B091210125
:1005B00080931A0190931B01A0931C01B0931D011D
:1005C0000E944D016B017C010E940E029B01AC0157
:1005D000C701B6010E94450E209116013091170106
:1005E00040911801509119010E94450E60931E011F
:1005F00070931F0180932001909321018CE591E07D
:100600000E940F0AC0901E01D0901F01E0902001AF
:10061000F090210120E030E040E251E4C701B60152
:100620000E9450102B013C01609312017093130142
:10063000809314019093150120E030E0A901C701D7
:10064000B6010E94501020910E0130910F0140918F
:100650001001509111010E94450E4B015C0120E0F8
:1006600030E040E85FE30E94451018162CF480E06B
:1006700090E0A0E8BFE317C020E030E040E85FEB87
:10068000C501B4010E94D10E87FD09C080920E0100
:1006900090920F01A0921001B09211010CC080E065
:1006A00090E0A0E8BFEB80930E0190930F01A09320
:1006B0001001B093110120911A0130911B0140915A
:1006C0001C0150911D01C701B6010E94440E20E09B
:1006D00030E0A9010E9450106B017C0160930A0177
:1006E00070930B0180930C0190930D0120910E01EA
:1006F00030910F014091100150911101C301B201DD
:100700000E94450EA70196010E94450E6B017C01D7
:10071000C1E0D0E020E030E0A9010E9445101816A9
:1007200014F0C0E0D0E020E030E040E85FE3C70133
:10073000B6019F770E944510181634F4C12CD12CB5
:1007400080E8E82E8FE3F82E2FE632E143E85AE303
:10075000C701B6010E9450109B01AC0160911601C7
:100760007091170180911801909119010E94450E16
:1007700060931601709317018093180190931901EB
:10078000CE010E94A202C701B6019F77DF91CF91EF
:10079000FF90EF90DF90CF90BF90AF909F908F90A1
:1007A0007F906F905F904F900C945A041F920F921D
:1007B0000FB60F9211242F933F934F935F936F9334
:1007C0007F938F939F93AF93BF93EF93FF9380910A
:1007D0000801909109016E9A892B11F076980DC04D
:1007E000769A82E491E00E94120D81E090E090936D
:1007F0000901809308016A9A7298FF91EF91BF9165
:10080000AF919F918F917F916F915F914F913F91A8
:100810002F910F900FBE0F901F901895CF93DF93DD
:1008200000D000D0CDB7DEB79A01AB0190933D0167
:1008300080933C019093890080938800BC0180E004
:1008400090E029833A834B835C830E946E0F298159
:100850003A814B815C810E9450100E94420F70933C
:100860008B0060938A00E1E8F0E080818061808302
:10087000808188608083A0E8B0E08C9182608C9356
:100880008C9181608C938C9180628C938C918F7E03
:100890008C9380818B7F8083808182608083808144
:1008A0008E7F8083269A0F900F900F900F90DF918C
:1008B000CF910895CF93DF9300D000D0CDB7DEB7AE
:1008C0009B01AC0160913C0170913D0180E090E0A2
:1008D00029833A834B835C830E946E0F29813A817E
:1008E0004B815C810E9450100E94420F70938B00DC
:1008F00060938A000F900F900F900F90DF91CF912F
:100900000895E1E8F0E080818B7F808380818D7F96
:10091000808380818E7F80832698089587BD85B5EA
:10092000886085BD84B5826084BD84B5816084BDE6
:1009300084B58F7784BD84B58F7B84BD84B58F7D6E
:1009400084BD84B58F7E84BD85B5846085BD85B545
:100950008D7F85BD85B5816085BD089585B58B7F0B
:1009600085BD85B58D7F85BD85B58E7F85BD089597
:10097000882339F080916E00816080936E007894B6
:10098000089580916E008E7F80936E000895CF93BE
:10099000DF93ACE7B0E08C918F778C938C9180647F
:1009A0008C93EAE7F0E080818460808380818260BC
:1009B0008083808181608083CEE7D0E08881816000
:1009C0008883808180628083CBE7D0E088818F7DBF
:1009D00088838C918B7F8C938C918D7F8C938C9161
:1009E0008E7F8C9380818068808380818064808307
:1009F000DF91CF910895892B39F080917A0088603A
:100A000080937A007894089580917A00877F80930C
:100A10007A000895EAE7F0E090819F779083ACE751
:100A2000B0E09C918770987F892B8C93808180683F
:100A30008083089580917C00877008958091E800FC
:100A400080FFFCCF089581E08093D70080EA8093F7
:100A5000D80082E189BD09B400FEFDCF80E9809312
:100A6000D8001092E0001092410110923E018CE0FB
:100A70008093E200789408958091410108959FB792
:100A8000F89480914101882339F083E08093E90054
:100A90008091E80085FD03C09FBF8FEF089580918E
:100AA000F1002091E80025FD03C02BE62093E8002B
:100AB0009FBF08959FB7F89480914101882331F03A
:100AC00083E08093E9008091F20001C080E09FBF45
:100AD000089580914101882371F08FB7F89493E0D5
:100AE0009093E9002BE69091E80095FF03C02093D6
:100AF000E800F9CF8FBF089590914101992371F0DB
:100B00009FB7F89424E02093E90020913F0122232D
:100B100049F02091E80025FD03C09FBF8FEF0895A5
:100B200010923F012091E400275E34E04091E800FC
:100B300045FD12C09FBF9091E400921304C081E074
:100B400080933F01EBCF90914101992339F39FB7F7
:100B5000F8943093E900EACF8093F1008091E800A7
:100B600085FD03C08AE38093E80085E0809340011F
:100B70009FBF80E00895909141019923D1F09FB7E4
:100B8000F89424E02093E9002091E80025FD02C0BC
:100B90009FBF0FC08093F1008091E80085FD03C0E6
:100BA0008AE38093E80085E0809340019FBF80E066
:100BB00008958FEF0895EF92FF921F93CF93DF93E5
:100BC0007C01CB0120914101222371F0AFB7F89451
:100BD00024E02093E90020913F01222349F0209155
:100BE000E80025FD03C0AFBF8FEF42C210923F0166
:100BF000B4E0C0E4DAE315E0009709F437C22091CD
:100C0000E400275E3091E80035FD12C0AFBF30919F
:100C1000E400321304C081E080933F01E5CF3091BE
:100C20004101332309F3AFB7F894B093E900EACF59
:100C30002091F2004C2F421B242F30E082179307A3
:100C400008F4482F841B910950E04134510508F005
:100C5000FDC14A5A5F4FFA010C94B610F70120818A
:100C60002093F10097012F5F3F4F7901F701208119
:100C70002093F10097012F5F3F4F7901F701208109
:100C80002093F10097012F5F3F4F7901F7012081F9
:100C90002093F10097012F5F3F4F7901F7012081E9
:100CA0002093F10097012F5F3F4F7901F7012081D9
:100CB0002093F10097012F5F3F4F7901F7012081C9
:100CC0002093F10097012F5F3F4F7901F7012081B9
:100CD0002093F10097012F5F3F4F7901F7012081A9
:100CE0002093F10097012F5F3F4F7901F701208199
:100CF0002093F10097012F5F3F4F7901F701208189
:100D00002093F10097012F5F3F4F7901F701208178
:100D10002093F10097012F5F3F4F7901F701208168
:100D20002093F10097012F5F3F4F7901F701208158
:100D30002093F10097012F5F3F4F7901F701208148
:100D40002093F10097012F5F3F4F7901F701208138
:100D50002093F10097012F5F3F4F7901F701208128
:100D60002093F10097012F5F3F4F7901F701208118
:100D70002093F10097012F5F3F4F7901F701208108
:100D80002093F10097012F5F3F4F7901F7012081F8
:100D90002093F10097012F5F3F4F7901F7012081E8
:100DA0002093F10097012F5F3F4F7901F7012081D8
:100DB0002093F10097012F5F3F4F7901F7012081C8
:100DC0002093F10097012F5F3F4F7901F7012081B8
:100DD0002093F10097012F5F3F4F7901F7012081A8
:100DE0002093F10097012F5F3F4F7901F701208198
:100DF0002093F10097012F5F3F4F7901F701208188
:100E00002093F10097012F5F3F4F7901F701208177
:100E10002093F10097012F5F3F4F7901F701208167
:100E20002093F10097012F5F3F4F7901F701208157
:100E30002093F10097012F5F3F4F7901F701208147
:100E40002093F10097012F5F3F4F7901F701208137
:100E50002093F10097012F5F3F4F7901F701208127
:100E60002093F10097012F5F3F4F7901F701208117
:100E70002093F10097012F5F3F4F7901F701208107
:100E80002093F10097012F5F3F4F7901F7012081F7
:100E90002093F10097012F5F3F4F7901F7012081E7
:100EA0002093F10097012F5F3F4F7901F7012081D7
:100EB0002093F10097012F5F3F4F7901F7012081C7
:100EC0002093F10097012F5F3F4F7901F7012081B7
:100ED0002093F10097012F5F3F4F7901F7012081A7
:100EE0002093F10097012F5F3F4F7901F701208197
:100EF0002093F10097012F5F3F4F7901F701208187
:100F00002093F10097012F5F3F4F7901F701208176
:100F10002093F10097012F5F3F4F7901F701208166
:100F20002093F10097012F5F3F4F7901F701208156
:100F30002093F10097012F5F3F4F7901F701208146
:100F40002093F10097012F5F3F4F7901F701208136
:100F50002093F10097012F5F3F4F7901F701208126
:100F60002093F10097012F5F3F4F7901F701208116
:100F70002093F10097012F5F3F4F7901F701208106
:100F80002093F10097012F5F3F4F7901F7012081F6
:100F90002093F10097012F5F3F4F7901F7012081E6
:100FA0002093F10097012F5F3F4F7901F7012081D6
:100FB0002093F10097012F5F3F4F7901F7012081C6
:100FC0002093F10097012F5F3F4F7901F7012081B6
:100FD0002093F10097012F5F3F4F7901F7012081A6
:100FE0002093F10097012F5F3F4F7901F701208196
:100FF0002093F10097012F5F3F4F7901F701208186
:101000002093F10097012F5F3F4F7901F701208175
:101010002093F10097012F5F3F4F7901F701208165
:101020002093F10097012F5F3F4F7901F701208155
:101030002093F10097012F5F3F4F7901F701208145
:101040002093F10097012F5F3F4F7901F701208135
:101050002093F10097012F5F3F4F79012091E80025
:1010600025FFD093E80010934001C6CDAFBF80E0CC
:10107000DF91CF911F91FF90EF9008958FB7F89473
:1010800090914001992341F094E09093E9009AE314
:101090009093E800109240018FBF08958091040161
:1010A0000895809105010895809106010895809129
:1010B0003E0108959FB7F89420914101222339F011
:1010C00022E02093E9003091E80035FD03C09FBF86
:1010D0008FEF089531EA3093F10030E23093F10060
:1010E0001092F1001092F1001092F1001092F100B4
:1010F0002093F1001092F1008093F1001092F10022
:101100008AE38093E8009FBF80E008951F920F92CA
:101110000FB60F9211248F939F938091E10010924C
:10112000E10083FF11C01092E90091E09093EB0081
:101130001092EC0092E19093ED0098E09093F00013
:101140001092410110923E0182FF13C08091410133
:10115000882379F080914001882359F08150809351
:101160004001811106C084E08093E9008AE3809306
:10117000E8009F918F910F900FBE0F901F901895D0
:101180001F920F920FB60F921124EF92FF920F93BE
:101190001F932F933F934F935F936F937F938F93FF
:1011A0009F93AF93BF93EF93FF93CF93DF931F92E0
:1011B000CDB7DEB71092E9008091E80083FF14C13B
:1011C0009091F1008091F1003091F1002091F100B7
:1011D000E32EF12CF22A0091F1002091F10010E0B1
:1011E000122B2091F1006091F10032EF3093E80072
:1011F000863009F046C036E089EA91E0FC0145916D
:1012000054914E155F0539F4FC0132964591549185
:101210004017510721F00796315081F7E5C0FC01D6
:10122000349645915491FC013696849130E0362BEA
:101230002F3F310519F010F02FEF30E0281708F498
:10124000822F3EEF9091E800292F2570D9F392FD6F
:10125000CEC0982F813108F090E1FA01292F222386
:1012600031F064916093F10021503196F8CF490F2D
:10127000511D891B3093E8008111E4CF903111F3A7
:10128000B6C0853051F48EEF8093E8000E941E05B1
:101290008E2D80688093E300AAC0893059F59111A2
:1012A00080C0E092410110923E01109240018EEF09
:1012B0008093E80041E082E592E04093E9009C01E0
:1012C0002F5F3F4FFC0154915093EB00552359F091
:1012D000F90124912093EC009C012D5F3F4F319642
:1012E00084918093ED004F5F453011F0C901E5CF47
:1012F0008EE175C0883051F4903809F052C00E94D8
:101300001E05809141018093F10047C0813279F43C
:10131000913A09F046C00E941E05E0E0F1E081919B
:101320008093F10081E0E730F807C9F736C08032DA
:1013300099F49132B1F58091E80082FFFCCFE0E0B2
:10134000F1E08091F100819381E0E730F807C9F77F
:101350008BEF8093E80021C0823241F4913209F092
:1013600043C0E0923E010E941E0517C0811119C0C2
:1013700099830E941E059981923851F40093E900E7
:101380008091EB0085FB882780F91092E90001C06D
:1013900080E08093F1001092F1008EEF8093E800DE
:1013A00026C0282F2D7F2130F9F49230E9F4EF2860
:1013B000D9F40F779FEF900F9430B0F49EEF909395
:1013C000E8000093E900833079F089E18093EB0035
:1013D00081E090E0002E01C0880F0A94EAF7809324
:1013E000EA001092EA0003C081E28093EB000F90C4
:1013F000DF91CF91FF91EF91BF91AF919F918F912D
:101400007F916F915F914F913F912F911F910F911C
:10141000FF90EF900F900FBE0F901F9018951F93A5
:10142000CF93DF93EC01FE011491112351F01A3098
:1014300019F48DE00E947C05812F0E947C05219685
:10144000F2CFDF91CF911F9108958A3010F490E38D
:1014500001C097E3890F0C947C05CF93C82F829528
:101460008F700E94250A8C2F8F70CF910C94250AC3
:10147000CF93C82F892F0E942D0A8C2FCF910C94C7
:101480002D0A0C942D0AEF92FF920F931F93CF9386
:10149000DF93CDB7DEB727970FB6F894DEBF0FBE48
:1014A000CDBF8E010F5F1F4F27E0F80111922A95E3
:1014B000E9F74AE0B8010E94BC107E01F8E0EF0EA7
:1014C000F11CF80181918F0181110E947C050E159C
:1014D0001F05B9F727960FB6F894DEBF0FBECDBF34
:1014E000DF91CF911F910F91FF90EF900895EF92B0
:1014F000FF920F931F93CF93DF9300D000D000D0C3
:10150000CDB7DEB78E010F5F1F4F26E0F8011192B5
:101510002A95E9F74AE0B8010E94F8107E01F6E04A
:10152000EF0EF11CF80181918F0181110E947C0561
:101530000E151F05B9F726960FB6F894DEBF0FBE3D
:10154000CDBFDF91CF911F910F91FF90EF90089544
:10155000EF92FF920F931F93CF93DF93CDB7DEB738
:101560002B970FB6F894DEBF0FBECDBF8E010F5F75
:101570001F4F2BE0F80111922A95E9F72AE0A80104
:101580000E94C7107E01FCE0EF0EF11CF801819172
:101590008F0181110E947C050E151F05B9F72B964E
:1015A0000FB6F894DEBF0FBECDBFDF91CF911F9174
:1015B0000F91FF90EF900895EF92FF920F931F937A
:1015C000CF93DF93CDB7DEB72B970FB6F894DEBF7E
:1015D0000FBECDBF8E010F5F1F4F2BE0F8011192A0
:1015E0002A95E9F72AE0A8010E94D6107E01FBE0C7
:1015F000EF0EF11CF80181918F0181110E947C0591
:101600000E151F05B9F72B960FB6F894DEBF0FBE67
:10161000CDBFDF91CF911F910F91FF90EF90089573
:10162000589A599A5A9A8CE08093B800E9E6F0E00B
:1016300080818062808380818F7E8083EA9A789423
:10164000089584E88093BC008091BC0087FFFCCFA4
:101650008091BB00089584E98093BC00089520E048
:1016600030E08091BC0087FD06C02F5F3F4F293ED0
:1016700083E03807B1F781E0283E334009F480E089
:1016800008958093BB0084E88093BC000E942F0BD8
:10169000882321F08091B900887F089580E0089523
:1016A0001F93CF93DF931F92CDB7DEB7182F84EA35
:1016B0008093BC0069830E942F0B6981811104C053
:1016C00094E99093BC0014C0812F880F662331F0F9
:1016D0008F5F0E94410B883451F404C00E94410B7B
:1016E000803229F484E98093BC0080E001C081E06D
:1016F0000F90DF91CF911F910895CF93DF93C82F63
:10170000D62F60E00E94500B882391F08D2F0E940D
:10171000410B882369F084E98093BC0061E08C2F41
:101720000E94500B882321F0DF91CF910C94210B64
:1017300080E0DF91CF910895CF93DF93D62FC42F10
:1017400060E00E94500B811102C080E00EC08D2F1E
:101750000E94410B8823C9F38C2F0E94410B8823E0
:10176000A1F384E98093BC0081E0DF91CF910895DB
:10177000CF93DF9300D01F92CDB7DEB74B836A8340
:1017800089830E94100B94EA9093BC0089816A813E
:101790004B819091BC0097FFFCCF90E59093BB00EC
:1017A00094E89093BC009091BC0097FFFCCF90917F
:1017B000B900987F903229F484E98093BC0080E0DE
:1017C00029C091E09093BB0094E89093BC00909165
:1017D000BC0097FFFCCF8093BB0084E88093BC00E3
:1017E0008091BC0087FFFCCF6093BB0084E88093AE
:1017F000BC008091BC0087FFFCCF4093BB0084E815
:101800008093BC008091BC0087FFFCCF84E980936B
:10181000BC0081E00F900F900F90DF91CF91089561
:1018200024EA2093BC002091BC0027FFFCCF21E5D7
:101830002093BB0024E82093BC002091BC0027FF2C
:10184000FCCF2091B900287F2834A9F024EC209304
:10185000BC002091BC0027FFFCCF2091BB002613C9
:101860000AC0FC0120E030E0772767FD70956150E9
:10187000710944EC0EC084E98093BC0080E00895B7
:101880005091BC0057FFFCCF5091BB0051932F5F8C
:101890003F4F261737071CF44093BC00F1CF44E8B4
:1018A0004093BC004091BC0047FFFCCF4091BB007F
:1018B000FC01E20FF31F408384E98093BC0081E0C8
:1018C0000895F89494EA9093BC009091BC0097FF1F
:1018D000FCCF90E59093BB0094E89093BC0090916E
:1018E000BC0097FFFCCF9091B900987F903231F403
:1018F00084E98093BC00789480E0089593E090930D
:10190000BB0094E89093BC009091BC0097FFFCCF83
:101910008093BB0084E88093BC008091BC0087FF6B
:10192000FCCFFB01552747FD509524E8CF01861BCE
:10193000970B8417950754F481918093BB002093F3
:10194000BC008091BC0087FFFCCFF0CF84E980937E
:10195000BC00789481E00895CF93DF93D82FC62FF1
:10196000843010F080E05BC06430E0F70E94100B20
:101970002FEF85EA9EE0215080409040E1F700C0C3
:10198000000065E789E60E947D0B883659F741E043
:101990006BE689E60E949C0B4D2F440F440F440FC9
:1019A0006CE189E60E949C0B4C2F440F440F440FBE
:1019B0006BE189E60E949C0B42E067E389E60E94A6
:1019C0009C0B40E062E08EE10E949C0B40E067E3EC
:1019D00089E60E949C0B4EE164E389E60E949C0B21
:1019E00041E067E689E60E949C0B4DE164E289E6EE
:1019F0000E949C0B4EE965E289E60E949C0B43E045
:101A000066E289E60E949C0B46E967E289E60E944D
:101A10009C0B40E26AE689E60E949C0B81E0DF9124
:101A2000CF910895EF92FF920F931F93CF93DF937F
:101A3000CDB7DEB765970FB6F894DEBF0FBECDBF4A
:101A40008C01CE0101967C019EE4692F89E69D8B75
:101A50000E947D0BF70181937F019D8991509A33FC
:101A6000A1F78F859889F801958384838F81988564
:101A70009387828789819A81918B808B89899A89C2
:101A80009383828389859A85918780878B819C81C6
:101A9000978786878B899C89918380838B859C859A
:101AA000978386838D819E819587848781E0659663
:101AB0000FB6F894DEBF0FBECDBFDF91CF911F915F
:101AC0000F91FF90EF900895EF92FF920F931F9365
:101AD000CF93DF93CDB7DEB727970FB6F894DEBF6D
:101AE0000FBECDBF8C01CE0101967C0190E4692F21
:101AF00089E69F830E947D0BF70181937F019F817F
:101B000091509A33A1F789819A81F8019583848352
:101B10008B819C81938382838D819E81918380833D
:101B200081E027960FB6F894DEBF0FBECDBFDF91E0
:101B3000CF911F910F91FF90EF900895EF92FF9238
:101B40000F931F93CF93DF93CDB7DEB727970FB6D1
:101B5000F894DEBF0FBECDBF8C01CE0101967C0193
:101B600098E4692F89E69F830E947D0BF70181939A
:101B70007F019F8191509234A1F789819A81F80168
:101B8000958384838B819C81938382838D819E81C5
:101B90009183808381E027960FB6F894DEBF0FBE55
:101BA000CDBFDF91CF911F910F91FF90EF900895DE
:101BB000EF92FF920F931F93CF93DF93CDB7DEB7D2
:101BC00027970FB6F894DEBF0FBECDBF8C01CE01B4
:101BD00001967C019EE4692F89E69F830E947D0B1C
:101BE000F70181937F019F8191509834A1F78981FA
:101BF0009A81F801958384838B819C81938382836E
:101C00008D819E819183808381E027960FB6F89421
:101C1000DEBF0FBECDBFDF91CF911F910F91FF901F
:101C2000EF9008956E9A8EB11EB80E9423056E9AA9
:101C3000769A6A9A729A80E88093610010926100A5
:101C400061E080E00E94AC0C8EE30E948E0481E093
:101C50000E94B8044DEC5CEC6CEC7DE380E49FE109
:101C60000E940E04209A219A229A239A2B9A8091FC
:101C7000080190910901892BD1F30E94AB021092C7
:101C8000090110920801F3CF5058BB27AA270ED0A4
:101C9000C2C1B3D130F0B8D120F031F49F3F11F47C
:101CA0001EF483C10EF4E095E7FB79C1E92FC4D19E
:101CB00080F3BA17620773078407950718F071F469
:101CC0009EF5DCC10EF4E0950B2EBA2FA02D0B0172
:101CD000B90190010C01CA01A0011124FF27591B71
:101CE00099F0593F50F4503E68F11A16F040A22F77
:101CF000232F342F4427585FF3CF469537952795E8
:101D0000A795F0405395C9F77EF41F16BA0B620BE6
:101D1000730B840BBAF09150A1F0FF0FBB1F661F2D
:101D2000771F881FC2F70EC0BA0F621F731F841F70
:101D300048F4879577956795B795F7959E3F08F096
:101D4000B3CF9395880F08F09927EE0F9795879555
:101D50000895DF93DD27B92FBF7740E85FE31616BC
:101D6000170648075B0710F4D92F93D19F938F93E1
:101D70007F936F93F8D1EEE2F1E01AD14CD12F911D
:101D80003F914F915F9198D1DD2349F09058A2EA9D
:101D90002AED3FE049EC5FE3D0785D2787DFDF91F4
:101DA0003AC1D9D008F481E008950CD034C12CD1C7
:101DB00040F023D130F021F45F3F19F0F0C0511111
:101DC0005EC1F3C039D198F39923C9F35523B1F318
:101DD000951B550BBB27AA2762177307840738F09A
:101DE0009F5F5F4F220F331F441FAA1FA9F333D0F9
:101DF0000E2E3AF0E0E830D091505040E695001CAD
:101E0000CAF729D0FE2F27D0660F771F881FBB1F68
:101E1000261737074807AB07B0E809F0BB0B802D42
:101E2000BF01FF2793585F4F2AF09E3F510568F08E
:101E3000B6C025C15F3FECF3983EDCF386957795FD
:101E40006795B795F7959F5FC9F7880F911D969590
:101E5000879597F90895E1E0660F771F881FBB1FEC
:101E6000621773078407BA0720F0621B730B840B99
:101E7000BA0BEE1F88F7E095089504D06894B1116D
:101E8000FEC00895E1D088F09F5790F0B92F9927B0
:101E9000B751A0F0D1F0660F771F881F991F1AF075
:101EA000BA95C9F712C0B13081F0E8D0B1E0089519
:101EB000E5C0672F782F8827B85F39F0B93FCCF39A
:101EC000869577956795B395D9F73EF4909580956B
:101ED000709561957F4F8F4F9F4F0895E89409C08B
:101EE00097FB3EF490958095709561957F4F8F4F4D
:101EF0009F4F9923A9F0F92F96E9BB279395F69563
:101F0000879577956795B795F111F8CFFAF4BB0FE0
:101F100011F460FF1BC06F5F7F4F8F4F9F4F16C044
:101F2000882311F096E911C0772321F09EE8872FCE
:101F3000762F05C0662371F096E8862F70E060E08A
:101F40002AF09A95660F771F881FDAF7880F969503
:101F5000879597F90895990F0008550FAA0BE0E8A7
:101F6000FEEF16161706E807F907C0F0121613065B
:101F7000E407F50798F0621B730B840B950B39F49B
:101F80000A2661F0232B242B252B21F408950A2601
:101F900009F4A140A6958FEF811D811D089597F941
:101FA0009F6780E870E060E008959FEF80EC0895FF
:101FB000DF93CF931F930F93FF92EF92DF927B01FA
:101FC0008C01689405C0DA2EEF0176D0FE01E8940A
:101FD000A5912591359145915591AEF3EF0166DEBE
:101FE000FE019701A801DA9479F7DF90EF90FF9056
:101FF0000F911F91CF91DF91089500240A94161636
:10200000170618060906089500240A9412161306E6
:10201000140605060895092E0394000C11F4882374
:1020200052F0BB0F40F4BF2B11F460FF04C06F5F90
:102030007F4F8F4F9F4F089557FD9058440F551F66
:1020400059F05F3F71F04795880F97FB991F61F03A
:102050009F3F79F087950895121613061406551FB1
:10206000F2CF4695F1DF08C0161617061806991F1D
:10207000F1CF86957105610508940895E894BB2712
:1020800066277727CB0197F9089565DF08F48FEF6E
:1020900008959B01AC0160E070E080E89FE385CE8D
:1020A0000BD0B9CFAADF28F0AFDF18F0952309F0E5
:1020B00076CF7BCF1124E3CFBFDFA0F3959FD1F381
:1020C000950F50E0551F629FF001729FBB27F00DE6
:1020D000B11D639FAA27F00DB11DAA1F649F66273B
:1020E000B00DA11D661F829F2227B00DA11D621F8A
:1020F000739FB00DA11D621F839FA00D611D221F44
:10210000749F3327A00D611D231F849F600D211D27
:10211000822F762F6A2F11249F5750408AF0E1F0CA
:1021200088234AF0EE0FFF1FBB1F661F771F881F13
:1021300091505040A9F79E3F510570F030CF9FCF8E
:102140005F3FECF3983EDCF3869577956795B795FE
:10215000F795E7959F5FC1F7FE2B880F911D969528
:10216000879597F908959B01AC019ACFEE0FFF1F59
:102170000590F491E02D0994BB274A3031F499235E
:1021800022F4BDE2909581959F4F0C94F910BB27E6
:102190002A3051F4992342F4BDE2909580957095D0
:1021A00061957F4F8F4F9F4F0C94D710BB27FA013B
:1021B000A62F6217710581059105330B30FB66F080
:1021C000AA27660F771F881F991FAA1FA21710F052
:1021D000A21B63953850A9F7A05DAA3308F0A95D4A
:1021E000A19336F7B111B1931082CA010C94121168
:1021F000BB27FB015527AA27880F991FAA1FA417E1
:1022000010F0A41B83955051B9F7A05DAA3308F0D4
:10221000A95DA193009779F7B111B1931192CB0108
:102220000C941211DC01FC01672F71917723E1F707
:10223000329704C07C916D9370836291AE17BF0793
:08224000C8F30895F894FFCFE4
:0822480000E1000000000800A5
:00000001FF
