:100000000C9408010C9425010C9425010C942501F5
:100010000C9425010C9425010C9425010C942501C8
:100020000C9425010C9425010C9460070C949A07FC
:100030000C9425010C9425010C9425010C942501A8
:100040000C9425010C9425010C9425010C94250198
:100050000C9425010C9425010C9425010C94B802F4
:100060000C9425010C9425010C9425010C94250178
:100070000C9425010C9425010C9425010C94250168
:100080000C9425010C9425010C9425010C94250158
:100090000C9425010C9425010C9425010C94250148
:1000A0000C9425010C9425010C94250108070007E8
:1000B000F806F006E806E006D806D006C806C00630
:1000C000B806B006A806A006980690068806800620
:1000D0007806700668066006580650064806400610
:1000E0003806300628062006180610060806000600
:1000F000F805F005E805E005D805D005C805C005F8
:10010000B805B005A805A0059805900588058005E7
:1001100078057005680560055805500548054005D7
:100120003805300528052005180510050805084A7A
:10013000D73B3BCE016E84BCBFFDC12F3D6C7431FB
:100140009ABD56833DDA3D00C77F11BED9E4BB4C52
:100150003E916BAAAABE000000803F000001000093
:10016000F3011200020000B0014300030000AC01E3
:100170000401030904980112020309049001060313
:100180000309048601080803340031003000000030
:1001900006034D003200000012034A002E0020002A
:1001A0004600690065006E00650000000403090454
:1001B00009024300020100C03209040000010202EA
:1001C0000100052400100105240101010424020698
:1001D0000524060001070582031000400904010000
:1001E000020A000000070503024000000705840220
:1001F0004000001201000202000010C0167A040044
:1002000001010203010001C11201803601813600A3
:1002100011241FBECFEFDAE0DEBFCDBF11E0A0E0BA
:10022000B1E0E6E0F0E202C005900D92A830B1071F
:10023000D9F721E0A8E0B1E001C01D92A234B207D5
:10024000E1F70E94EC0C0C9401100C940000CF928A
:10025000DF92EF92FF920F931F93CF93DF93009162
:10026000280110912901C0912C01D0912D0160919C
:100270001C0170911D0180911E0190911F0123E3CB
:1002800033E343E75FE30E942F0F6B017C01B8016A
:10029000882777FD8095982F0E944F0E2DEC3CEC1F
:1002A0004CE45DE30E942F0F9B01AC01C701B60136
:1002B0000E94290D60931C0170931D0180931E0103
:1002C00090931F01609114017091150180911601A6
:1002D0009091170123E333E343E75FE30E942F0F7D
:1002E0006B017C01BE01882777FD8095982F0E94C5
:1002F0004F0E2DEC3CEC4CE45DE30E942F0F9B0174
:10030000AC01C701B6010E94290D609314017093DE
:10031000150180931601909317016091140170915B
:100320001501809116019091170120E030E0A9019C
:100330000E94B50D81110CC08AE097EDA3E2BCE3E9
:100340008093140190931501A0931601B0931701A7
:1003500080913E0190913F01A0914001B0914101F7
:1003600080933A0190933B01A0933C01B0933D01EF
:1003700060911C0170911D0180911E0190911F01DF
:1003800020911401309115014091160150911701EF
:100390000E94B90D0E948D0D60933E0170933F0144
:1003A000809340019093410160913E0170913F0123
:1003B0008091400190914101DF91CF911F910F9168
:1003C000FF90EF90DF90CF900895289A892B19F035
:1003D000299A2A9A089529982A980895CF92DF9207
:1003E000EF92FF92CF93DF930E94270120E030E04D
:1003F00040E450E40E942F0F6093100170931101AC
:100400008093120190931301C0900C01D0900D01C4
:10041000E0900E01F0900F0160913E0170913F015C
:1004200080914001909141012DEC3CEC4CE45DE366
:100430000E942F0F9B01AC01C701B6010E94290D3C
:1004400060930C0170930D0180930E0190930F0146
:1004500060910C0170910D0180910E0190910F013E
:100460002AE939E949E95EE30E94240F18162CF4C1
:100470008AE999E9A9E9BEE314C060910C01709181
:100480000D0180910E0190910F012AE939E949E9A6
:100490005EEB0E94B50D87FF0CC08AE999E9A9E9D6
:1004A000BEEB80930C0190930D01A0930E01B093CD
:1004B0000F0160913E0170913F0180914001909148
:1004C000410120913A0130913B0140913C01509112
:1004D0003D010E94280D20E030E040E751E40E94F9
:1004E0002F0F609308017093090180930A01909384
:1004F0000B01609110017091110180911201909196
:10050000130120910C0130910D0140910E01509189
:100510000F01C0900801D0900901E0900A01F0900D
:100520000B010E94290DA70196010E94290D6B0164
:100530007C01C1E0D0E020E030E0A9010E94240F5E
:10054000181614F0C0E0D0E0CE010E94E50129EFBA
:100550003FE049EC5FE3C701B6010E94B90D9F7708
:10056000DF91CF91FF90EF90DF90CF900C94340308
:100570001F920F920FB60F9211242F933F934F9318
:100580005F936F937F938F939F93AF93BF93EF93FB
:10059000FF9388E291E00E94EC0B882341F081E018
:1005A00090E090932101809320016A9A7298FF91C4
:1005B000EF91BF91AF919F918F917F916F915F91DB
:1005C0004F913F912F910F900FBE0F901F90189554
:1005D000CF93DF9300D000D0CDB7DEB79A01AB0147
:1005E0009093230180932201909389008093880047
:1005F000BC0180E090E029833A834B835C830E94B6
:100600004D0E29813A814B815C810E942F0F0E94FF
:10061000210E70938B0060938A00E1E8F0E0808106
:1006200080618083808188608083A0E8B0E08C91C5
:1006300082608C938C9181608C938C9180628C937E
:100640008C918F7E8C9380818B7F80838081826070
:10065000808380818E7F8083269A0F900F900F90E9
:100660000F90DF91CF910895CF93DF9300D000D00A
:10067000CDB7DEB79B01AC016091220170912301DF
:1006800080E090E029833A834B835C830E944D0E87
:1006900029813A814B815C810E942F0F0E94210E9B
:1006A00070938B0060938A000F900F900F900F90C3
:1006B000DF91CF910895E1E8F0E080818B7F808326
:1006C00080818D7F808380818E7F808326980895AE
:1006D00087BD85B5886085BD84B5826084BD84B5DD
:1006E000816084BD84B58F7784BD84B58F7B84BDE4
:1006F00084B58F7D84BD84B58F7E84BD85B58B7FA9
:1007000085BD85B5826085BD85B58E7F85BD089523
:1007100085B58B7F85BD85B58D7F85BD85B58E7F84
:1007200085BD0895882339F080916E0081608093A3
:100730006E007894089580916E008E7F80936E0095
:100740000895CF93DF93ACE7B0E08C918F778C93D3
:100750008C9180648C93EAE7F0E0808184608083F0
:10076000808182608083808181608083CEE7D0E059
:10077000888181608883808180628083CBE7D0E03C
:1007800088818F7D88838C918B7F8C938C918D7FDA
:100790008C938C918E7F8C93808180688083808104
:1007A00080648083DF91CF910895892B39F0809107
:1007B0007A00886080937A007894089580917A0016
:1007C000877F80937A000895EAE7F0E090819F7731
:1007D0009083ACE7B0E09C918770987F892B8C93D5
:1007E000808180688083089580917C00877008955F
:1007F0008091E80080FFFCCF089581E08093D700CE
:1008000080EA8093D80082E189BD09B400FEFDCF63
:1008100080E98093D8001092E00010922701109296
:1008200024018CE08093E200789408958091270160
:1008300008959FB7F89480912701882339F083E0C9
:100840008093E9008091E80085FD03C09FBF8FEF92
:1008500008958091F1002091E80025FD03C02BE66A
:100860002093E8009FBF08959FB7F89480912701D7
:10087000882331F083E08093E9008091F20001C089
:1008800080E09FBF089580912701882371F08FB782
:10089000F89493E09093E9002BE69091E80095FF9F
:1008A00003C02093E800F9CF8FBF089590912701EE
:1008B000992371F09FB7F89424E02093E9002091E8
:1008C0002501222349F02091E80025FD03C09FBFA8
:1008D0008FEF0895109225012091E400275E34E007
:1008E0004091E80045FD12C09FBF9091E400921333
:1008F00004C081E080932501EBCF909127019923DB
:1009000039F39FB7F8943093E900EACF8093F10070
:100910008091E80085FD03C08AE38093E80085E0CC
:10092000809326019FBF80E008959091270199232D
:10093000D1F09FB7F89424E02093E9002091E800DB
:1009400025FD02C09FBF0FC08093F1008091E80099
:1009500085FD03C08AE38093E80085E0809326014B
:100960009FBF80E008958FEF0895EF92FF921F934D
:10097000CF93DF937C01CB0120912701222371F0DB
:10098000AFB7F89424E02093E900209125012223B9
:1009900049F02091E80025FD03C0AFBF8FEF42C2B0
:1009A00010922501B4E0C0E4DAE315E0009709F401
:1009B00037C22091E400275E3091E80035FD12C077
:1009C000AFBF3091E400321304C081E08093250171
:1009D000E5CF30912701332309F3AFB7F894B093F3
:1009E000E900EACF2091F2004C2F421B242F30E087
:1009F0008217930708F4482F841B910950E0413473
:100A0000510508F0FDC14A5A5F4FFA010C94950F49
:100A1000F70120812093F10097012F5F3F4F79016B
:100A2000F70120812093F10097012F5F3F4F79015B
:100A3000F70120812093F10097012F5F3F4F79014B
:100A4000F70120812093F10097012F5F3F4F79013B
:100A5000F70120812093F10097012F5F3F4F79012B
:100A6000F70120812093F10097012F5F3F4F79011B
:100A7000F70120812093F10097012F5F3F4F79010B
:100A8000F70120812093F10097012F5F3F4F7901FB
:100A9000F70120812093F10097012F5F3F4F7901EB
:100AA000F70120812093F10097012F5F3F4F7901DB
:100AB000F70120812093F10097012F5F3F4F7901CB
:100AC000F70120812093F10097012F5F3F4F7901BB
:100AD000F70120812093F10097012F5F3F4F7901AB
:100AE000F70120812093F10097012F5F3F4F79019B
:100AF000F70120812093F10097012F5F3F4F79018B
:100B0000F70120812093F10097012F5F3F4F79017A
:100B1000F70120812093F10097012F5F3F4F79016A
:100B2000F70120812093F10097012F5F3F4F79015A
:100B3000F70120812093F10097012F5F3F4F79014A
:100B4000F70120812093F10097012F5F3F4F79013A
:100B5000F70120812093F10097012F5F3F4F79012A
:100B6000F70120812093F10097012F5F3F4F79011A
:100B7000F70120812093F10097012F5F3F4F79010A
:100B8000F70120812093F10097012F5F3F4F7901FA
:100B9000F70120812093F10097012F5F3F4F7901EA
:100BA000F70120812093F10097012F5F3F4F7901DA
:100BB000F70120812093F10097012F5F3F4F7901CA
:100BC000F70120812093F10097012F5F3F4F7901BA
:100BD000F70120812093F10097012F5F3F4F7901AA
:100BE000F70120812093F10097012F5F3F4F79019A
:100BF000F70120812093F10097012F5F3F4F79018A
:100C0000F70120812093F10097012F5F3F4F790179
:100C1000F70120812093F10097012F5F3F4F790169
:100C2000F70120812093F10097012F5F3F4F790159
:100C3000F70120812093F10097012F5F3F4F790149
:100C4000F70120812093F10097012F5F3F4F790139
:100C5000F70120812093F10097012F5F3F4F790129
:100C6000F70120812093F10097012F5F3F4F790119
:100C7000F70120812093F10097012F5F3F4F790109
:100C8000F70120812093F10097012F5F3F4F7901F9
:100C9000F70120812093F10097012F5F3F4F7901E9
:100CA000F70120812093F10097012F5F3F4F7901D9
:100CB000F70120812093F10097012F5F3F4F7901C9
:100CC000F70120812093F10097012F5F3F4F7901B9
:100CD000F70120812093F10097012F5F3F4F7901A9
:100CE000F70120812093F10097012F5F3F4F790199
:100CF000F70120812093F10097012F5F3F4F790189
:100D0000F70120812093F10097012F5F3F4F790178
:100D1000F70120812093F10097012F5F3F4F790168
:100D2000F70120812093F10097012F5F3F4F790158
:100D3000F70120812093F10097012F5F3F4F790148
:100D4000F70120812093F10097012F5F3F4F790138
:100D5000F70120812093F10097012F5F3F4F790128
:100D6000F70120812093F10097012F5F3F4F790118
:100D7000F70120812093F10097012F5F3F4F790108
:100D8000F70120812093F10097012F5F3F4F7901F8
:100D9000F70120812093F10097012F5F3F4F7901E8
:100DA000F70120812093F10097012F5F3F4F7901D8
:100DB000F70120812093F10097012F5F3F4F7901C8
:100DC000F70120812093F10097012F5F3F4F7901B8
:100DD000F70120812093F10097012F5F3F4F7901A8
:100DE000F70120812093F10097012F5F3F4F790198
:100DF000F70120812093F10097012F5F3F4F790188
:100E0000F70120812093F10097012F5F3F4F790177
:100E10002091E80025FFD093E80010932601C6CD6D
:100E2000AFBF80E0DF91CF911F91FF90EF900895C9
:100E30008FB7F89490912601992341F094E0909314
:100E4000E9009AE39093E800109226018FBF08957D
:100E50008091040108958091050108958091060113
:100E600008958091240108959FB7F8942091270157
:100E7000222339F022E02093E9003091E80035FD8B
:100E800003C09FBF8FEF089531EA3093F10030E245
:100E90003093F1001092F1001092F1001092F100E5
:100EA0001092F1002093F1001092F1008093F10074
:100EB0001092F1008AE38093E8009FBF80E00895DC
:100EC0001F920F920FB60F9211248F939F938091D0
:100ED000E1001092E10083FF11C01092E90091E05F
:100EE0009093EB001092EC0092E19093ED0098E06B
:100EF0009093F000109227011092240182FF13C0FA
:100F000080912701882379F080912601882359F068
:100F1000815080932601811106C084E08093E9000E
:100F20008AE38093E8009F918F910F900FBE0F90FE
:100F30001F9018951F920F920FB60F921124EF92E7
:100F4000FF920F931F932F933F934F935F936F9352
:100F50007F938F939F93AF93BF93EF93FF93CF9321
:100F6000DF931F92CDB7DEB71092E9008091E800C1
:100F700083FF14C19091F1008091F1003091F10054
:100F80002091F100E32EF12CF22A0091F100209142
:100F9000F10010E0122B2091F1006091F10032EF8E
:100FA0003093E800863009F046C036E08CE591E0E9
:100FB000FC01459154914E155F0539F4FC013296C0
:100FC000459154914017510721F00796315081F710
:100FD000E5C0FC01349645915491FC01369684910C
:100FE00030E0362B2F3F310519F010F02FEF30E0B5
:100FF000281708F4822F3EEF9091E800292F2570E2
:10100000D9F392FDCEC0982F813108F090E1FA011A
:10101000292F222331F064916093F1002150319601
:10102000F8CF490F511D891B3093E8008111E4CF9F
:10103000903111F3B6C0853051F48EEF8093E80003
:101040000E94F8038E2D80688093E300AAC0893047
:1010500059F5911180C0E09227011092240110925D
:1010600026018EEF8093E80041E085E092E0409316
:10107000E9009C012F5F3F4FFC0154915093EB001E
:10108000552359F0F90124912093EC009C012D5F28
:101090003F4F319684918093ED004F5F453011F0C2
:1010A000C901E5CF8EE175C0883051F4903809F060
:1010B00052C00E94F803809127018093F10047C03D
:1010C000813279F4913A09F046C00E94F803E0E0D9
:1010D000F1E081918093F10081E0E730F807C9F7F2
:1010E00036C0803299F49132B1F58091E80082FFE8
:1010F000FCCFE0E0F1E08091F100819381E0E73006
:10110000F807C9F78BEF8093E80021C0823241F4E1
:10111000913209F043C0E09224010E94F80317C005
:10112000811119C099830E94F8039981923851F472
:101130000093E9008091EB0085FB882780F91092ED
:10114000E90001C080E08093F1001092F1008EEF81
:101150008093E80026C0282F2D7F2130F9F49230AB
:10116000E9F4EF28D9F40F779FEF900F9430B0F4A3
:101170009EEF9093E8000093E900833079F089E1D5
:101180008093EB0081E090E0002E01C0880F0A946C
:10119000EAF78093EA001092EA0003C081E28093AC
:1011A000EB000F90DF91CF91FF91EF91BF91AF9145
:1011B0009F918F917F916F915F914F913F912F916F
:1011C0001F910F91FF90EF900F900FBE0F901F9007
:1011D00018951F93CF93DF93EC01FE011491112317
:1011E00051F01A3019F48DE00E945604812F0E94AC
:1011F00056042196F2CFDF91CF911F9108958A3046
:1012000010F490E301C097E3890F0C945604CF9338
:10121000C82F82958F700E94FF088C2F8F70CF91FE
:101220000C94FF08CF93C82F892F0E9407098C2F99
:10123000CF910C9407090C940709EF92FF920F933A
:101240001F93CF93DF93CDB7DEB727970FB6F894F0
:10125000DEBF0FBECDBF8E010F5F1F4F27E0F8012D
:1012600011922A95E9F74AE0B8010E949B0F7E018E
:10127000F8E0EF0EF11CF80181918F0181110E94BD
:1012800056040E151F05B9F727960FB6F894DEBF62
:101290000FBECDBFDF91CF911F910F91FF90EF90C7
:1012A0000895EF92FF920F931F93CF93DF9300D097
:1012B00000D000D0CDB7DEB78E010F5F1F4F26E004
:1012C000F80111922A95E9F74AE0B8010E94D70F78
:1012D0007E01F6E0EF0EF11CF80181918F01811182
:1012E0000E9456040E151F05B9F726960FB6F894FE
:1012F000DEBF0FBECDBFDF91CF911F910F91FF9049
:10130000EF900895EF92FF920F931F93CF93DF9387
:10131000CDB7DEB72B970FB6F894DEBF0FBECDBFAB
:101320008E010F5F1F4F2BE0F80111922A95E9F70C
:101330002AE0A8010E94A60F7E01FCE0EF0EF11C3E
:10134000F80181918F0181110E9456040E151F052D
:10135000B9F72B960FB6F894DEBF0FBECDBFDF9165
:10136000CF911F910F91FF90EF900895EF92FF9210
:101370000F931F93CF93DF93CDB7DEB72B970FB6A5
:10138000F894DEBF0FBECDBF8E010F5F1F4F2BE065
:10139000F80111922A95E9F72AE0A8010E94B50FF9
:1013A0007E01FBE0EF0EF11CF80181918F018111AC
:1013B0000E9456040E151F05B9F72B960FB6F89428
:1013C000DEBF0FBECDBFDF91CF911F910F91FF9078
:1013D000EF900895589A599A5A9A8CE08093B800E1
:1013E000E9E6F0E080818062808380818F7E808367
:1013F000EA9A7894089584E88093BC008091BC00B8
:1014000087FFFCCF8091BB00089584E98093BC00E6
:10141000089520E030E08091BC0087FD06C02F5F7A
:101420003F4F293E83E03807B1F781E0283E334043
:1014300009F480E008958093BB0084E88093BC00A9
:101440000E94090A882321F08091B900887F0895BD
:1014500080E008951F93CF93DF931F92CDB7DEB73F
:10146000182F84EA8093BC0069830E94090A69816D
:10147000811104C094E99093BC0014C0812F880F9F
:10148000662331F08F5F0E941B0A883451F404C038
:101490000E941B0A803229F484E98093BC0080E01A
:1014A00001C081E00F90DF91CF911F910895CF93FC
:1014B000DF93C82FD62F60E00E942A0A882391F07C
:1014C0008D2F0E941B0A882369F084E98093BC0059
:1014D00061E08C2F0E942A0A882321F0DF91CF91AE
:1014E0000C94FB0980E0DF91CF910895CF93DF93B7
:1014F000D62FC42F60E00E942A0A811102C080E02A
:101500000EC08D2F0E941B0A8823C9F38C2F0E94C6
:101510001B0A8823A1F384E98093BC0081E0DF915A
:10152000CF910895CF93DF9300D01F92CDB7DEB750
:101530004B836A8389830E94EA0994EA9093BC00F2
:1015400089816A814B819091BC0097FFFCCF90E527
:101550009093BB0094E89093BC009091BC0097FFDF
:10156000FCCF9091B900987F903229F484E9809360
:10157000BC0080E029C091E09093BB0094E8909378
:10158000BC009091BC0097FFFCCF8093BB0084E827
:101590008093BC008091BC0087FFFCCF6093BB00B0
:1015A00084E88093BC008091BC0087FFFCCF40930F
:1015B000BB0084E88093BC008091BC0087FFFCCF17
:1015C00084E98093BC0081E00F900F900F90DF9131
:1015D000CF91089524EA2093BC002091BC0027FFFE
:1015E000FCCF21E52093BB0024E82093BC00209190
:1015F000BC0027FFFCCF2091B900287F2834A9F038
:1016000024EC2093BC002091BC0027FFFCCF20914C
:10161000BB0026130AC0FC0120E030E0772767FDFD
:1016200070956150710944EC0EC084E98093BC0050
:1016300080E008955091BC0057FFFCCF5091BB0053
:1016400051932F5F3F4F261737071CF44093BC0080
:10165000F1CF44E84093BC004091BC0047FFFCCF71
:101660004091BB00FC01E20FF31F408384E98093AB
:10167000BC0081E00895F89494EA9093BC009091A6
:10168000BC0097FFFCCF90E59093BB0094E890934B
:10169000BC009091BC0097FFFCCF9091B900987F5F
:1016A000903231F484E98093BC00789480E008950E
:1016B00093E09093BB0094E89093BC009091BC00A1
:1016C00097FFFCCF8093BB0084E88093BC0080919F
:1016D000BC0087FFFCCFFB01552747FD509524E850
:1016E000CF01861B970B8417950754F48191809343
:1016F000BB002093BC008091BC0087FFFCCFF0CFE3
:1017000084E98093BC00789481E00895CF93DF93BF
:10171000D82FC62F843010F080E05BC06430E0F733
:101720000E94EA092FEF85EA9EE021508040904018
:10173000E1F700C0000065E789E60E94570A883695
:1017400059F741E06BE689E60E94760A4D2F440F77
:10175000440F440F6CE189E60E94760A4C2F440F37
:10176000440F440F6BE189E60E94760A42E067E38A
:1017700089E60E94760A40E062E08EE10E94760AE5
:1017800040E067E389E60E94760A4EE164E389E679
:101790000E94760A41E067E689E60E94760A4DE1FA
:1017A00064E289E60E94760A4EE965E289E60E94D3
:1017B000760A43E066E289E60E94760A46E967E235
:1017C00089E60E94760A40E26AE689E60E94760A85
:1017D00081E0DF91CF910895EF92FF920F931F93D5
:1017E000CF93DF93CDB7DEB765970FB6F894DEBF22
:1017F0000FBECDBF8C01CE0101967C019EE4692F06
:1018000089E69D8B0E94570AF70181937F019D898C
:1018100091509A33A1F78F859889F8019583848335
:101820008F8198859387828789819A81918B808B1C
:1018300089899A899383828389859A85918780870C
:101840008B819C81978786878B899C8991838083F4
:101850008B859C85978386838D819E8195878487E0
:1018600081E065960FB6F894DEBF0FBECDBFDF9165
:10187000CF911F910F91FF90EF900895EF92FF92FB
:101880000F931F93CF93DF93CDB7DEB727970FB694
:10189000F894DEBF0FBECDBF8C01CE0101967C0156
:1018A00090E4692F89E69F830E94570AF70181938C
:1018B0007F019F8191509A33A1F789819A81F80124
:1018C000958384838B819C81938382838D819E8188
:1018D0009183808381E027960FB6F894DEBF0FBE18
:1018E000CDBFDF91CF911F910F91FF90EF900895A1
:1018F000EF92FF920F931F93CF93DF93CDB7DEB795
:1019000027970FB6F894DEBF0FBECDBF8C01CE0176
:1019100001967C0198E4692F89E69F830E94570A0B
:10192000F70181937F019F8191509234A1F78981C2
:101930009A81F801958384838B819C819383828330
:101940008D819E819183808381E027960FB6F894E4
:10195000DEBF0FBECDBFDF91CF911F910F91FF90E2
:10196000EF900895EF92FF920F931F93CF93DF9321
:10197000CDB7DEB727970FB6F894DEBF0FBECDBF49
:101980008C01CE0101967C019EE4692F89E69F833C
:101990000E94570AF70181937F019F8191509834EB
:1019A000A1F789819A81F801958384838B819C8139
:1019B000938382838D819E819183808381E02796AA
:1019C0000FB6F894DEBF0FBECDBFDF91CF911F9150
:1019D0000F91FF90EF9008956E9A8EB11EB86E9A97
:1019E000769A6A9A729A80E88093610010926100F8
:1019F00060E080E00E94860B6E9A76984DEC5CEC7D
:101A00006CEC7DE380E49FE10E94E802209A219A39
:101A1000229A239A2B9AC1E0D0E088E291E00E94BA
:101A2000EC0B882331F0D0932101C09320016A9AF6
:101A300072988091200190912101892B71F310926D
:101A40002101109220010E94EE016A9A729AE5CF5C
:101A50005058BB27AA270ED0BDC1AED130F0B3D1AC
:101A600020F031F49F3F11F41EF47EC10EF4E09596
:101A7000E7FB74C1E92FBFD180F3BA176207730780
:101A80008407950718F071F49EF5D7C10EF4E09520
:101A90000B2EBA2FA02D0B01B90190010C01CA0128
:101AA000A0011124FF27591B99F0593F50F4503ED3
:101AB00068F11A16F040A22F232F342F4427585FC5
:101AC000F3CF469537952795A795F0405395C9F7DD
:101AD0007EF41F16BA0B620B730B840BBAF0915095
:101AE000A1F0FF0FBB1F661F771F881FC2F70EC034
:101AF000BA0F621F731F841F48F487957795679507
:101B0000B795F7959E3F08F0B3CF9395880F08F0EF
:101B10009927EE0F979587950895DF93DD27B92FC5
:101B2000BF7740E85FE31616170648075B0710F417
:101B3000D92F8ED19F938F937F936F93F3D1EEE242
:101B4000F1E015D147D12F913F914F915F9193D102
:101B5000DD2349F09058A2EA2AED3FE049EC5FE32B
:101B6000D0785D2787DFDF9135C1D4D008F481E0DC
:101B700008950CD02FC127D140F01ED130F021F4B0
:101B80005F3F19F0EBC0511159C1EEC034D198F349
:101B90009923C9F35523B1F3951B550BBB27AA27EE
:101BA00062177307840738F09F5F5F4F220F331F60
:101BB000441FAA1FA9F333D00E2E3AF0E0E830D02C
:101BC00091505040E695001CCAF729D0FE2F27D02F
:101BD000660F771F881FBB1F261737074807AB07FD
:101BE000B0E809F0BB0B802DBF01FF2793585F4F72
:101BF0002AF09E3F510568F0B1C020C15F3FECF371
:101C0000983EDCF3869577956795B795F7959F5F36
:101C1000C9F7880F911D9695879597F90895E1E08A
:101C2000660F771F881FBB1F621773078407BA07E9
:101C300020F0621B730B840BBA0BEE1F88F7E09544
:101C40000895E1D088F09F5790F0B92F9927B751A8
:101C5000A0F0D1F0660F771F881F991F1AF0BA9570
:101C6000C9F712C0B13081F0E8D0B1E00895E5C005
:101C7000672F782F8827B85F39F0B93FCCF3869566
:101C800077956795B395D9F73EF4909580957095C3
:101C900061957F4F8F4F9F4F0895E89409C097FB40
:101CA0003EF490958095709561957F4F8F4F9F4F33
:101CB0009923A9F0F92F96E9BB279395F695879577
:101CC00077956795B795F111F8CFFAF4BB0F11F43A
:101CD00060FF1BC06F5F7F4F8F4F9F4F16C08823E1
:101CE00011F096E911C0772321F09EE8872F762F17
:101CF00005C0662371F096E8862F70E060E02AF058
:101D00009A95660F771F881FDAF7880F9695879543
:101D100097F90895990F0008550FAA0BE0E8FEEF18
:101D200016161706E807F907C0F012161306E4079F
:101D3000F50798F0621B730B840B950B39F40A2698
:101D400061F0232B242B252B21F408950A2609F476
:101D5000A140A6958FEF811D811D089597F99F677A
:101D600080E870E060E008959FEF80EC0895DF93D5
:101D7000CF931F930F93FF92EF92DF927B018C0121
:101D8000689405C0DA2EEF0176D0FE01E894A591A3
:101D90002591359145915591AEF3EF016BDEFE0132
:101DA0009701A801DA9479F7DF90EF90FF900F91F7
:101DB0001F91CF91DF91089500240A9416161706FB
:101DC00018060906089500240A941216130614062C
:101DD00005060895092E0394000C11F4882352F08F
:101DE000BB0F40F4BF2B11F460FF04C06F5F7F4F47
:101DF0008F4F9F4F089557FD9058440F551F59F02E
:101E00005F3F71F04795880F97FB991F61F09F3FE7
:101E100079F087950895121613061406551FF2CF10
:101E20004695F1DF08C0161617061806991FF1CF60
:101E300086957105610508940895E894BB27662787
:101E40007727CB0197F9089565DF08F48FEF0895A0
:101E50009B01AC0160E070E080E89FE38ACE0BD08C
:101E6000B9CFAADF28F0AFDF18F0952309F076CFBD
:101E70007BCF1124E3CFBFDFA0F3959FD1F3950F64
:101E800050E0551F629FF001729FBB27F00DB11DFE
:101E9000639FAA27F00DB11DAA1F649F6627B00D8E
:101EA000A11D661F829F2227B00DA11D621F739F77
:101EB000B00DA11D621F839FA00D611D221F749F85
:101EC0003327A00D611D231F849F600D211D822FCC
:101ED000762F6A2F11249F5750408AF0E1F0882313
:101EE0004AF0EE0FFF1FBB1F661F771F881F915020
:101EF0005040A9F79E3F510570F030CF9FCF5F3F14
:101F0000ECF3983EDCF3869577956795B795F79552
:101F1000E7959F5FC1F7FE2B880F911D96958795DA
:101F200097F908959B01AC019ACFEE0FFF1F059022
:101F3000F491E02D0994BB274A3031F4992322F41F
:101F4000BDE2909581959F4F0C94D80FBB272A3006
:101F500051F4992342F4BDE2909580957095619576
:101F60007F4F8F4F9F4F0C94B60FBB27FA01A62FC0
:101F70006217710581059105330B30FB66F0AA27C6
:101F8000660F771F881F991FAA1FA21710F0A21BA8
:101F900063953850A9F7A05DAA3308F0A95DA19315
:101FA00036F7B111B1931082CA010C94F10FBB271F
:101FB000FB015527AA27880F991FAA1FA41710F005
:101FC000A41B83955051B9F7A05DAA3308F0A95D11
:101FD000A193009779F7B111B1931192CB010C94B1
:101FE000F10FDC01FC01672F71917723E1F7329744
:101FF00004C07C916D9370836291AE17BF07C8F3E4
:062000000895F894FFCFE3
:0820060000E1000000000800E9
:00000001FF
